{
  "_format": "hh-sol-artifact-1",
  "contractName": "RWAHackathonNFT",
  "sourceName": "contracts/RWAHackathonNFT.sol",
  "abi": [
    {
      "inputs": [
        {
          "internalType": "string",
          "name": "name",
          "type": "string"
        },
        {
          "internalType": "string",
          "name": "symbol",
          "type": "string"
        },
        {
          "internalType": "uint256",
          "name": "_maxSupply",
          "type": "uint256"
        },
        {
          "internalType": "string",
          "name": "_baseTokenURI",
          "type": "string"
        }
      ],
      "stateMutability": "nonpayable",
      "type": "constructor"
    },
    {
      "inputs": [
        {
          "internalType": "address",
          "name": "sender",
          "type": "address"
        },
        {
          "internalType": "uint256",
          "name": "tokenId",
          "type": "uint256"
        },
        {
          "internalType": "address",
          "name": "owner",
          "type": "address"
        }
      ],
      "name": "ERC721IncorrectOwner",
      "type": "error"
    },
    {
      "inputs": [
        {
          "internalType": "address",
          "name": "operator",
          "type": "address"
        },
        {
          "internalType": "uint256",
          "name": "tokenId",
          "type": "uint256"
        }
      ],
      "name": "ERC721InsufficientApproval",
      "type": "error"
    },
    {
      "inputs": [
        {
          "internalType": "address",
          "name": "approver",
          "type": "address"
        }
      ],
      "name": "ERC721InvalidApprover",
      "type": "error"
    },
    {
      "inputs": [
        {
          "internalType": "address",
          "name": "operator",
          "type": "address"
        }
      ],
      "name": "ERC721InvalidOperator",
      "type": "error"
    },
    {
      "inputs": [
        {
          "internalType": "address",
          "name": "owner",
          "type": "address"
        }
      ],
      "name": "ERC721InvalidOwner",
      "type": "error"
    },
    {
      "inputs": [
        {
          "internalType": "address",
          "name": "receiver",
          "type": "address"
        }
      ],
      "name": "ERC721InvalidReceiver",
      "type": "error"
    },
    {
      "inputs": [
        {
          "internalType": "address",
          "name": "sender",
          "type": "address"
        }
      ],
      "name": "ERC721InvalidSender",
      "type": "error"
    },
    {
      "inputs": [
        {
          "internalType": "uint256",
          "name": "tokenId",
          "type": "uint256"
        }
      ],
      "name": "ERC721NonexistentToken",
      "type": "error"
    },
    {
      "inputs": [
        {
          "internalType": "address",
          "name": "owner",
          "type": "address"
        }
      ],
      "name": "OwnableInvalidOwner",
      "type": "error"
    },
    {
      "inputs": [
        {
          "internalType": "address",
          "name": "account",
          "type": "address"
        }
      ],
      "name": "OwnableUnauthorizedAccount",
      "type": "error"
    },
    {
      "anonymous": false,
      "inputs": [
        {
          "indexed": true,
          "internalType": "address",
          "name": "owner",
          "type": "address"
        },
        {
          "indexed": true,
          "internalType": "address",
          "name": "approved",
          "type": "address"
        },
        {
          "indexed": true,
          "internalType": "uint256",
          "name": "tokenId",
          "type": "uint256"
        }
      ],
      "name": "Approval",
      "type": "event"
    },
    {
      "anonymous": false,
      "inputs": [
        {
          "indexed": true,
          "internalType": "address",
          "name": "owner",
          "type": "address"
        },
        {
          "indexed": true,
          "internalType": "address",
          "name": "operator",
          "type": "address"
        },
        {
          "indexed": false,
          "internalType": "bool",
          "name": "approved",
          "type": "bool"
        }
      ],
      "name": "ApprovalForAll",
      "type": "event"
    },
    {
      "anonymous": false,
      "inputs": [
        {
          "indexed": false,
          "internalType": "string",
          "name": "newBaseURI",
          "type": "string"
        }
      ],
      "name": "BaseURIUpdated",
      "type": "event"
    },
    {
      "anonymous": false,
      "inputs": [
        {
          "indexed": false,
          "internalType": "uint256",
          "name": "_fromTokenId",
          "type": "uint256"
        },
        {
          "indexed": false,
          "internalType": "uint256",
          "name": "_toTokenId",
          "type": "uint256"
        }
      ],
      "name": "BatchMetadataUpdate",
      "type": "event"
    },
    {
      "anonymous": false,
      "inputs": [
        {
          "indexed": false,
          "internalType": "bytes32",
          "name": "newRoot",
          "type": "bytes32"
        }
      ],
      "name": "MerkleRootUpdated",
      "type": "event"
    },
    {
      "anonymous": false,
      "inputs": [
        {
          "indexed": false,
          "internalType": "uint256",
          "name": "_tokenId",
          "type": "uint256"
        }
      ],
      "name": "MetadataUpdate",
      "type": "event"
    },
    {
      "anonymous": false,
      "inputs": [
        {
          "indexed": false,
          "internalType": "bool",
          "name": "enabled",
          "type": "bool"
        }
      ],
      "name": "MintingStatusChanged",
      "type": "event"
    },
    {
      "anonymous": false,
      "inputs": [
        {
          "indexed": true,
          "internalType": "address",
          "name": "to",
          "type": "address"
        },
        {
          "indexed": true,
          "internalType": "uint256",
          "name": "tokenId",
          "type": "uint256"
        },
        {
          "indexed": false,
          "internalType": "bytes32",
          "name": "emailHash",
          "type": "bytes32"
        }
      ],
      "name": "NFTMinted",
      "type": "event"
    },
    {
      "anonymous": false,
      "inputs": [
        {
          "indexed": true,
          "internalType": "address",
          "name": "previousOwner",
          "type": "address"
        },
        {
          "indexed": true,
          "internalType": "address",
          "name": "newOwner",
          "type": "address"
        }
      ],
      "name": "OwnershipTransferred",
      "type": "event"
    },
    {
      "anonymous": false,
      "inputs": [
        {
          "indexed": true,
          "internalType": "address",
          "name": "from",
          "type": "address"
        },
        {
          "indexed": true,
          "internalType": "address",
          "name": "to",
          "type": "address"
        },
        {
          "indexed": true,
          "internalType": "uint256",
          "name": "tokenId",
          "type": "uint256"
        }
      ],
      "name": "Transfer",
      "type": "event"
    },
    {
      "inputs": [
        {
          "internalType": "address",
          "name": "to",
          "type": "address"
        },
        {
          "internalType": "uint256",
          "name": "tokenId",
          "type": "uint256"
        }
      ],
      "name": "approve",
      "outputs": [],
      "stateMutability": "nonpayable",
      "type": "function"
    },
    {
      "inputs": [
        {
          "internalType": "address",
          "name": "owner",
          "type": "address"
        }
      ],
      "name": "balanceOf",
      "outputs": [
        {
          "internalType": "uint256",
          "name": "",
          "type": "uint256"
        }
      ],
      "stateMutability": "view",
      "type": "function"
    },
    {
      "inputs": [],
      "name": "baseTokenURI",
      "outputs": [
        {
          "internalType": "string",
          "name": "",
          "type": "string"
        }
      ],
      "stateMutability": "view",
      "type": "function"
    },
    {
      "inputs": [
        {
          "internalType": "uint256",
          "name": "tokenId",
          "type": "uint256"
        }
      ],
      "name": "getApproved",
      "outputs": [
        {
          "internalType": "address",
          "name": "",
          "type": "address"
        }
      ],
      "stateMutability": "view",
      "type": "function"
    },
    {
      "inputs": [],
      "name": "getNextTokenId",
      "outputs": [
        {
          "internalType": "uint256",
          "name": "",
          "type": "uint256"
        }
      ],
      "stateMutability": "view",
      "type": "function"
    },
    {
      "inputs": [
        {
          "internalType": "bytes32",
          "name": "emailHash",
          "type": "bytes32"
        }
      ],
      "name": "hasEmailMinted",
      "outputs": [
        {
          "internalType": "bool",
          "name": "",
          "type": "bool"
        }
      ],
      "stateMutability": "view",
      "type": "function"
    },
    {
      "inputs": [
        {
          "internalType": "bytes32",
          "name": "",
          "type": "bytes32"
        }
      ],
      "name": "hasMinted",
      "outputs": [
        {
          "internalType": "bool",
          "name": "",
          "type": "bool"
        }
      ],
      "stateMutability": "view",
      "type": "function"
    },
    {
      "inputs": [
        {
          "internalType": "address",
          "name": "owner",
          "type": "address"
        },
        {
          "internalType": "address",
          "name": "operator",
          "type": "address"
        }
      ],
      "name": "isApprovedForAll",
      "outputs": [
        {
          "internalType": "bool",
          "name": "",
          "type": "bool"
        }
      ],
      "stateMutability": "view",
      "type": "function"
    },
    {
      "inputs": [],
      "name": "maxSupply",
      "outputs": [
        {
          "internalType": "uint256",
          "name": "",
          "type": "uint256"
        }
      ],
      "stateMutability": "view",
      "type": "function"
    },
    {
      "inputs": [],
      "name": "merkleRoot",
      "outputs": [
        {
          "internalType": "bytes32",
          "name": "",
          "type": "bytes32"
        }
      ],
      "stateMutability": "view",
      "type": "function"
    },
    {
      "inputs": [
        {
          "internalType": "bytes32",
          "name": "emailHash",
          "type": "bytes32"
        },
        {
          "internalType": "bytes32[]",
          "name": "merkleProof",
          "type": "bytes32[]"
        }
      ],
      "name": "mint",
      "outputs": [],
      "stateMutability": "nonpayable",
      "type": "function"
    },
    {
      "inputs": [],
      "name": "mintingEnabled",
      "outputs": [
        {
          "internalType": "bool",
          "name": "",
          "type": "bool"
        }
      ],
      "stateMutability": "view",
      "type": "function"
    },
    {
      "inputs": [],
      "name": "name",
      "outputs": [
        {
          "internalType": "string",
          "name": "",
          "type": "string"
        }
      ],
      "stateMutability": "view",
      "type": "function"
    },
    {
      "inputs": [],
      "name": "owner",
      "outputs": [
        {
          "internalType": "address",
          "name": "",
          "type": "address"
        }
      ],
      "stateMutability": "view",
      "type": "function"
    },
    {
      "inputs": [
        {
          "internalType": "uint256",
          "name": "tokenId",
          "type": "uint256"
        }
      ],
      "name": "ownerOf",
      "outputs": [
        {
          "internalType": "address",
          "name": "",
          "type": "address"
        }
      ],
      "stateMutability": "view",
      "type": "function"
    },
    {
      "inputs": [],
      "name": "renounceOwnership",
      "outputs": [],
      "stateMutability": "nonpayable",
      "type": "function"
    },
    {
      "inputs": [
        {
          "internalType": "address",
          "name": "from",
          "type": "address"
        },
        {
          "internalType": "address",
          "name": "to",
          "type": "address"
        },
        {
          "internalType": "uint256",
          "name": "tokenId",
          "type": "uint256"
        }
      ],
      "name": "safeTransferFrom",
      "outputs": [],
      "stateMutability": "nonpayable",
      "type": "function"
    },
    {
      "inputs": [
        {
          "internalType": "address",
          "name": "from",
          "type": "address"
        },
        {
          "internalType": "address",
          "name": "to",
          "type": "address"
        },
        {
          "internalType": "uint256",
          "name": "tokenId",
          "type": "uint256"
        },
        {
          "internalType": "bytes",
          "name": "data",
          "type": "bytes"
        }
      ],
      "name": "safeTransferFrom",
      "outputs": [],
      "stateMutability": "nonpayable",
      "type": "function"
    },
    {
      "inputs": [
        {
          "internalType": "address",
          "name": "operator",
          "type": "address"
        },
        {
          "internalType": "bool",
          "name": "approved",
          "type": "bool"
        }
      ],
      "name": "setApprovalForAll",
      "outputs": [],
      "stateMutability": "nonpayable",
      "type": "function"
    },
    {
      "inputs": [
        {
          "internalType": "string",
          "name": "newBaseURI",
          "type": "string"
        }
      ],
      "name": "setBaseURI",
      "outputs": [],
      "stateMutability": "nonpayable",
      "type": "function"
    },
    {
      "inputs": [
        {
          "internalType": "bytes32",
          "name": "_merkleRoot",
          "type": "bytes32"
        }
      ],
      "name": "setMerkleRoot",
      "outputs": [],
      "stateMutability": "nonpayable",
      "type": "function"
    },
    {
      "inputs": [
        {
          "internalType": "bool",
          "name": "enabled",
          "type": "bool"
        }
      ],
      "name": "setMintingEnabled",
      "outputs": [],
      "stateMutability": "nonpayable",
      "type": "function"
    },
    {
      "inputs": [
        {
          "internalType": "bytes4",
          "name": "interfaceId",
          "type": "bytes4"
        }
      ],
      "name": "supportsInterface",
      "outputs": [
        {
          "internalType": "bool",
          "name": "",
          "type": "bool"
        }
      ],
      "stateMutability": "view",
      "type": "function"
    },
    {
      "inputs": [],
      "name": "symbol",
      "outputs": [
        {
          "internalType": "string",
          "name": "",
          "type": "string"
        }
      ],
      "stateMutability": "view",
      "type": "function"
    },
    {
      "inputs": [
        {
          "internalType": "uint256",
          "name": "tokenId",
          "type": "uint256"
        }
      ],
      "name": "tokenURI",
      "outputs": [
        {
          "internalType": "string",
          "name": "",
          "type": "string"
        }
      ],
      "stateMutability": "view",
      "type": "function"
    },
    {
      "inputs": [],
      "name": "totalSupply",
      "outputs": [
        {
          "internalType": "uint256",
          "name": "",
          "type": "uint256"
        }
      ],
      "stateMutability": "view",
      "type": "function"
    },
    {
      "inputs": [
        {
          "internalType": "address",
          "name": "from",
          "type": "address"
        },
        {
          "internalType": "address",
          "name": "to",
          "type": "address"
        },
        {
          "internalType": "uint256",
          "name": "tokenId",
          "type": "uint256"
        }
      ],
      "name": "transferFrom",
      "outputs": [],
      "stateMutability": "nonpayable",
      "type": "function"
    },
    {
      "inputs": [
        {
          "internalType": "address",
          "name": "newOwner",
          "type": "address"
        }
      ],
      "name": "transferOwnership",
      "outputs": [],
      "stateMutability": "nonpayable",
      "type": "function"
    },
    {
      "inputs": [
        {
          "internalType": "bytes32",
          "name": "emailHash",
          "type": "bytes32"
        },
        {
          "internalType": "bytes32[]",
          "name": "merkleProof",
          "type": "bytes32[]"
        }
      ],
      "name": "verifyWhitelist",
      "outputs": [
        {
          "internalType": "bool",
          "name": "",
          "type": "bool"
        }
      ],
      "stateMutability": "view",
      "type": "function"
    }
  ],
  "bytecode": "0x60a06040523480156200001157600080fd5b5060405162001ee438038062001ee483398101604081905262000034916200022a565b338484600062000045838262000354565b50600162000054828262000354565b5050506001600160a01b0381166200008757604051631e4fbdf760e01b8152600060048201526024015b60405180910390fd5b620000928162000113565b5060008211620000ef5760405162461bcd60e51b815260206004820152602160248201527f4d617820737570706c79206d7573742062652067726561746572207468616e206044820152600360fc1b60648201526084016200007e565b6080829052600962000102828262000354565b505060016008555062000420915050565b600780546001600160a01b038381166001600160a01b0319831681179093556040519116919082907f8be0079c531659141344cd1fd0a4f28419497f9722a3daafe3b4186f6b6457e090600090a35050565b634e487b7160e01b600052604160045260246000fd5b600082601f8301126200018d57600080fd5b81516001600160401b0380821115620001aa57620001aa62000165565b604051601f8301601f19908116603f01168101908282118183101715620001d557620001d562000165565b81604052838152602092508683858801011115620001f257600080fd5b600091505b83821015620002165785820183015181830184015290820190620001f7565b600093810190920192909252949350505050565b600080600080608085870312156200024157600080fd5b84516001600160401b03808211156200025957600080fd5b62000267888389016200017b565b955060208701519150808211156200027e57600080fd5b6200028c888389016200017b565b9450604087015193506060870151915080821115620002aa57600080fd5b50620002b9878288016200017b565b91505092959194509250565b600181811c90821680620002da57607f821691505b602082108103620002fb57634e487b7160e01b600052602260045260246000fd5b50919050565b601f8211156200034f57600081815260208120601f850160051c810160208610156200032a5750805b601f850160051c820191505b818110156200034b5782815560010162000336565b5050505b505050565b81516001600160401b0381111562000370576200037062000165565b6200038881620003818454620002c5565b8462000301565b602080601f831160018114620003c05760008415620003a75750858301515b600019600386901b1c1916600185901b1785556200034b565b600085815260208120601f198616915b82811015620003f157888601518255948401946001909101908401620003d0565b5085821015620004105787850151600019600388901b60f8161c191681555b5050505050600190811b01905550565b608051611aa162000443600039600081816103ca0152610a4f0152611aa16000f3fe608060405234801561001057600080fd5b50600436106101cf5760003560e01c80637cb6475911610104578063b88d4fde116100a2578063d5abeb0111610071578063d5abeb01146103c5578063e985e9c5146103ec578063ea58f5a7146103ff578063f2fde38b1461041257600080fd5b8063b88d4fde1461038f578063c87b56dd146103a2578063caa0f92a146103b5578063d547cfb7146103bd57600080fd5b80638f058d53116100de5780638f058d531461034457806395d89b41146103675780639fd6db121461036f578063a22cb4651461037c57600080fd5b80637cb64759146102fd5780637dbd77db146103105780638da5cb5b1461033357600080fd5b8063329ea90d1161017157806355f804b31161014b57806355f804b3146102bc5780636352211e146102cf57806370a08231146102e2578063715018a6146102f557600080fd5b8063329ea90d1461028357806342842e0e146102965780634ea3871a146102a957600080fd5b8063095ea7b3116101ad578063095ea7b31461023c57806318160ddd1461025157806323b872dd146102675780632eb4a7ab1461027a57600080fd5b806301ffc9a7146101d457806306fdde03146101fc578063081812fc14610211575b600080fd5b6101e76101e23660046114bc565b610425565b60405190151581526020015b60405180910390f35b610204610450565b6040516101f39190611529565b61022461021f36600461153c565b6104e2565b6040516001600160a01b0390911681526020016101f3565b61024f61024a366004611571565b61050b565b005b61025961051a565b6040519081526020016101f3565b61024f61027536600461159b565b610530565b610259600a5481565b6101e76102913660046115d7565b6105c0565b61024f6102a436600461159b565b61061d565b61024f6102b7366004611666565b61063d565b61024f6102ca36600461170d565b61068d565b6102246102dd36600461153c565b6106d1565b6102596102f0366004611756565b6106dc565b61024f610724565b61024f61030b36600461153c565b610738565b6101e761031e36600461153c565b600b6020526000908152604090205460ff1681565b6007546001600160a01b0316610224565b6101e761035236600461153c565b6000908152600b602052604090205460ff1690565b610204610775565b600c546101e79060ff1681565b61024f61038a366004611771565b610784565b61024f61039d3660046117a4565b61078f565b6102046103b036600461153c565b6107a7565b600854610259565b6102046108ab565b6102597f000000000000000000000000000000000000000000000000000000000000000081565b6101e76103fa366004611820565b610939565b61024f61040d3660046115d7565b610967565b61024f610420366004611756565b610bbc565b60006001600160e01b03198216632483248360e11b148061044a575061044a82610bfa565b92915050565b60606000805461045f9061184a565b80601f016020809104026020016040519081016040528092919081815260200182805461048b9061184a565b80156104d85780601f106104ad576101008083540402835291602001916104d8565b820191906000526020600020905b8154815290600101906020018083116104bb57829003601f168201915b5050505050905090565b60006104ed82610c4a565b506000828152600460205260409020546001600160a01b031661044a565b610516828233610c83565b5050565b6000600160085461052b919061189a565b905090565b6001600160a01b03821661055f57604051633250574960e11b8152600060048201526024015b60405180910390fd5b600061056c838333610c90565b9050836001600160a01b0316816001600160a01b0316146105ba576040516364283d7b60e01b81526001600160a01b0380861660048301526024820184905282166044820152606401610556565b50505050565b600a546000906105d257506000610616565b61061383838080602002602001604051908101604052809392919081815260200183836020028082843760009201919091525050600a549150879050610d89565b90505b9392505050565b6106388383836040518060200160405280600081525061078f565b505050565b610645610d9f565b600c805460ff19168215159081179091556040519081527f41f386d449eec03c1c3b75bbba9c18df70aa19779ff47f68eab4b6a66fb399d4906020015b60405180910390a150565b610695610d9f565b60096106a182826118f3565b507f6741b2fc379fad678116fe3d4d4b9a1a184ab53ba36b86ad0fa66340b1ab41ad816040516106829190611529565b600061044a82610c4a565b60006001600160a01b038216610708576040516322718ad960e21b815260006004820152602401610556565b506001600160a01b031660009081526003602052604090205490565b61072c610d9f565b6107366000610dcc565b565b610740610d9f565b600a8190556040518181527f90004c04698bc3322499a575ed3752dd4abf33e0a7294c06a787a0fe01bea94190602001610682565b60606001805461045f9061184a565b610516338383610e1e565b61079a848484610530565b6105ba3385858585610ebd565b60606107b282610c4a565b50600082815260066020526040812080546107cc9061184a565b80601f01602080910402602001604051908101604052809291908181526020018280546107f89061184a565b80156108455780601f1061081a57610100808354040283529160200191610845565b820191906000526020600020905b81548152906001019060200180831161082857829003601f168201915b505050505090506000610856610fe8565b90508051600003610868575092915050565b81511561089a5780826040516020016108829291906119b3565b60405160208183030381529060405292505050919050565b6108a384610ff7565b949350505050565b600980546108b89061184a565b80601f01602080910402602001604051908101604052809291908181526020018280546108e49061184a565b80156109315780601f1061090657610100808354040283529160200191610931565b820191906000526020600020905b81548152906001019060200180831161091457829003601f168201915b505050505081565b6001600160a01b03918216600090815260056020908152604080832093909416825291909152205460ff1690565b600c5460ff166109b25760405162461bcd60e51b8152602060048201526016602482015275135a5b9d1a5b99c81a5cc81b9bdd08195b98589b195960521b6044820152606401610556565b600a546109f75760405162461bcd60e51b815260206004820152601360248201527213595c9adb19481c9bdbdd081b9bdd081cd95d606a1b6044820152606401610556565b6000838152600b602052604090205460ff1615610a4d5760405162461bcd60e51b8152602060048201526014602482015273115b585a5b08185b1c9958591e481b5a5b9d195960621b6044820152606401610556565b7f00000000000000000000000000000000000000000000000000000000000000006008541115610ab45760405162461bcd60e51b815260206004820152601260248201527113585e081cdd5c1c1b1e481c995858da195960721b6044820152606401610556565b6000839050610afa83838080602002602001604051908101604052809392919081815260200183836020028082843760009201919091525050600a549150849050610d89565b610b3d5760405162461bcd60e51b815260206004820152601460248201527324b73b30b634b21026b2b935b63290383937b7b360611b6044820152606401610556565b600880549081906000610b4f836119e2565b9190505550610b5e338261105e565b6000858152600b602052604090819020805460ff1916600117905551819033907fc54325d42dcc3796f56fe92f0b96ca70d0588aa64a79ed13a845243de604cd3d90610bad9089815260200190565b60405180910390a35050505050565b610bc4610d9f565b6001600160a01b038116610bee57604051631e4fbdf760e01b815260006004820152602401610556565b610bf781610dcc565b50565b60006001600160e01b031982166380ac58cd60e01b1480610c2b57506001600160e01b03198216635b5e139f60e01b145b8061044a57506301ffc9a760e01b6001600160e01b031983161461044a565b6000818152600260205260408120546001600160a01b03168061044a57604051637e27328960e01b815260048101849052602401610556565b6106388383836001611078565b6000828152600260205260408120546001600160a01b0390811690831615610cbd57610cbd81848661117e565b6001600160a01b03811615610cfb57610cda600085600080611078565b6001600160a01b038116600090815260036020526040902080546000190190555b6001600160a01b03851615610d2a576001600160a01b0385166000908152600360205260409020805460010190555b60008481526002602052604080822080546001600160a01b0319166001600160a01b0389811691821790925591518793918516917fddf252ad1be2c89b69c2b068fc378daa952ba7f163c4a11628f55a4df523b3ef91a4949350505050565b600082610d9685846111e2565b14949350505050565b6007546001600160a01b031633146107365760405163118cdaa760e01b8152336004820152602401610556565b600780546001600160a01b038381166001600160a01b0319831681179093556040519116919082907f8be0079c531659141344cd1fd0a4f28419497f9722a3daafe3b4186f6b6457e090600090a35050565b6001600160a01b038216610e5057604051630b61174360e31b81526001600160a01b0383166004820152602401610556565b6001600160a01b03838116600081815260056020908152604080832094871680845294825291829020805460ff191686151590811790915591519182527f17307eab39ab6107e8899845ad3d59bd9653f200f220920489ca2b5937696c31910160405180910390a3505050565b6001600160a01b0383163b15610fe157604051630a85bd0160e11b81526001600160a01b0384169063150b7a0290610eff9088908890879087906004016119fb565b6020604051808303816000875af1925050508015610f3a575060408051601f3d908101601f19168201909252610f3791810190611a38565b60015b610fa3573d808015610f68576040519150601f19603f3d011682016040523d82523d6000602084013e610f6d565b606091505b508051600003610f9b57604051633250574960e11b81526001600160a01b0385166004820152602401610556565b805160208201fd5b6001600160e01b03198116630a85bd0160e11b14610fdf57604051633250574960e11b81526001600160a01b0385166004820152602401610556565b505b5050505050565b60606009805461045f9061184a565b606061100282610c4a565b50600061100d610fe8565b9050600081511161102d5760405180602001604052806000815250610616565b806110378461122f565b6040516020016110489291906119b3565b6040516020818303038152906040529392505050565b6105168282604051806020016040528060008152506112c2565b808061108c57506001600160a01b03821615155b1561114e57600061109c84610c4a565b90506001600160a01b038316158015906110c85750826001600160a01b0316816001600160a01b031614155b80156110db57506110d98184610939565b155b156111045760405163a9fbf51f60e01b81526001600160a01b0384166004820152602401610556565b811561114c5783856001600160a01b0316826001600160a01b03167f8c5be1e5ebec7d5bd14f71427d1e84f3dd0314c0f7b2291e5b200ac8c7c3b92560405160405180910390a45b505b5050600090815260046020526040902080546001600160a01b0319166001600160a01b0392909216919091179055565b6111898383836112da565b610638576001600160a01b0383166111b757604051637e27328960e01b815260048101829052602401610556565b60405163177e802f60e01b81526001600160a01b038316600482015260248101829052604401610556565b600081815b8451811015611227576112138286838151811061120657611206611a55565b602002602001015161133d565b91508061121f816119e2565b9150506111e7565b509392505050565b6060600061123c83611369565b600101905060008167ffffffffffffffff81111561125c5761125c611681565b6040519080825280601f01601f191660200182016040528015611286576020820181803683370190505b5090508181016020015b600019016f181899199a1a9b1b9c1cb0b131b232b360811b600a86061a8153600a850494508461129057509392505050565b6112cc8383611441565b610638336000858585610ebd565b60006001600160a01b038316158015906106135750826001600160a01b0316846001600160a01b0316148061131457506113148484610939565b806106135750506000908152600460205260409020546001600160a01b03908116911614919050565b6000818310611359576000828152602084905260409020610616565b5060009182526020526040902090565b60008072184f03e93ff9f4daa797ed6e38ed64bf6a1f0160401b83106113a85772184f03e93ff9f4daa797ed6e38ed64bf6a1f0160401b830492506040015b6d04ee2d6d415b85acef810000000083106113d4576d04ee2d6d415b85acef8100000000830492506020015b662386f26fc1000083106113f257662386f26fc10000830492506010015b6305f5e100831061140a576305f5e100830492506008015b612710831061141e57612710830492506004015b60648310611430576064830492506002015b600a831061044a5760010192915050565b6001600160a01b03821661146b57604051633250574960e11b815260006004820152602401610556565b600061147983836000610c90565b90506001600160a01b03811615610638576040516339e3563760e11b815260006004820152602401610556565b6001600160e01b031981168114610bf757600080fd5b6000602082840312156114ce57600080fd5b8135610616816114a6565b60005b838110156114f45781810151838201526020016114dc565b50506000910152565b600081518084526115158160208601602086016114d9565b601f01601f19169290920160200192915050565b60208152600061061660208301846114fd565b60006020828403121561154e57600080fd5b5035919050565b80356001600160a01b038116811461156c57600080fd5b919050565b6000806040838503121561158457600080fd5b61158d83611555565b946020939093013593505050565b6000806000606084860312156115b057600080fd5b6115b984611555565b92506115c760208501611555565b9150604084013590509250925092565b6000806000604084860312156115ec57600080fd5b83359250602084013567ffffffffffffffff8082111561160b57600080fd5b818601915086601f83011261161f57600080fd5b81358181111561162e57600080fd5b8760208260051b850101111561164357600080fd5b6020830194508093505050509250925092565b8035801515811461156c57600080fd5b60006020828403121561167857600080fd5b61061682611656565b634e487b7160e01b600052604160045260246000fd5b600067ffffffffffffffff808411156116b2576116b2611681565b604051601f8501601f19908116603f011681019082821181831017156116da576116da611681565b816040528093508581528686860111156116f357600080fd5b858560208301376000602087830101525050509392505050565b60006020828403121561171f57600080fd5b813567ffffffffffffffff81111561173657600080fd5b8201601f8101841361174757600080fd5b6108a384823560208401611697565b60006020828403121561176857600080fd5b61061682611555565b6000806040838503121561178457600080fd5b61178d83611555565b915061179b60208401611656565b90509250929050565b600080600080608085870312156117ba57600080fd5b6117c385611555565b93506117d160208601611555565b925060408501359150606085013567ffffffffffffffff8111156117f457600080fd5b8501601f8101871361180557600080fd5b61181487823560208401611697565b91505092959194509250565b6000806040838503121561183357600080fd5b61183c83611555565b915061179b60208401611555565b600181811c9082168061185e57607f821691505b60208210810361187e57634e487b7160e01b600052602260045260246000fd5b50919050565b634e487b7160e01b600052601160045260246000fd5b8181038181111561044a5761044a611884565b601f82111561063857600081815260208120601f850160051c810160208610156118d45750805b601f850160051c820191505b81811015610fdf578281556001016118e0565b815167ffffffffffffffff81111561190d5761190d611681565b6119218161191b845461184a565b846118ad565b602080601f831160018114611956576000841561193e5750858301515b600019600386901b1c1916600185901b178555610fdf565b600085815260208120601f198616915b8281101561198557888601518255948401946001909101908401611966565b50858210156119a35787850151600019600388901b60f8161c191681555b5050505050600190811b01905550565b600083516119c58184602088016114d9565b8351908301906119d98183602088016114d9565b01949350505050565b6000600182016119f4576119f4611884565b5060010190565b6001600160a01b0385811682528416602082015260408101839052608060608201819052600090611a2e908301846114fd565b9695505050505050565b600060208284031215611a4a57600080fd5b8151610616816114a6565b634e487b7160e01b600052603260045260246000fdfea2646970667358221220e72df1f8a3f52a5028498424713fa1c0d51d089661abecfe0f21528f3c8f7ece64736f6c63430008140033",
  "linkReferences": {},
  "deployedLinkReferences": {}
}