{
  "_format": "hh-sol-artifact-1",
  "contractName": "RWAHackathonNFT",
  "sourceName": "contracts/RWAHackathonNFT.sol",
  "abi": [
    {
      "inputs": [
        {
          "internalType": "string",
          "name": "name",
          "type": "string"
        },
        {
          "internalType": "string",
          "name": "symbol",
          "type": "string"
        },
        {
          "internalType": "uint256",
          "name": "_maxSupply",
          "type": "uint256"
        },
        {
          "internalType": "string",
          "name": "_baseTokenURI",
          "type": "string"
        }
      ],
      "stateMutability": "nonpayable",
      "type": "constructor"
    },
    {
      "inputs": [
        {
          "internalType": "address",
          "name": "sender",
          "type": "address"
        },
        {
          "internalType": "uint256",
          "name": "tokenId",
          "type": "uint256"
        },
        {
          "internalType": "address",
          "name": "owner",
          "type": "address"
        }
      ],
      "name": "ERC721IncorrectOwner",
      "type": "error"
    },
    {
      "inputs": [
        {
          "internalType": "address",
          "name": "operator",
          "type": "address"
        },
        {
          "internalType": "uint256",
          "name": "tokenId",
          "type": "uint256"
        }
      ],
      "name": "ERC721InsufficientApproval",
      "type": "error"
    },
    {
      "inputs": [
        {
          "internalType": "address",
          "name": "approver",
          "type": "address"
        }
      ],
      "name": "ERC721InvalidApprover",
      "type": "error"
    },
    {
      "inputs": [
        {
          "internalType": "address",
          "name": "operator",
          "type": "address"
        }
      ],
      "name": "ERC721InvalidOperator",
      "type": "error"
    },
    {
      "inputs": [
        {
          "internalType": "address",
          "name": "owner",
          "type": "address"
        }
      ],
      "name": "ERC721InvalidOwner",
      "type": "error"
    },
    {
      "inputs": [
        {
          "internalType": "address",
          "name": "receiver",
          "type": "address"
        }
      ],
      "name": "ERC721InvalidReceiver",
      "type": "error"
    },
    {
      "inputs": [
        {
          "internalType": "address",
          "name": "sender",
          "type": "address"
        }
      ],
      "name": "ERC721InvalidSender",
      "type": "error"
    },
    {
      "inputs": [
        {
          "internalType": "uint256",
          "name": "tokenId",
          "type": "uint256"
        }
      ],
      "name": "ERC721NonexistentToken",
      "type": "error"
    },
    {
      "inputs": [
        {
          "internalType": "address",
          "name": "owner",
          "type": "address"
        }
      ],
      "name": "OwnableInvalidOwner",
      "type": "error"
    },
    {
      "inputs": [
        {
          "internalType": "address",
          "name": "account",
          "type": "address"
        }
      ],
      "name": "OwnableUnauthorizedAccount",
      "type": "error"
    },
    {
      "anonymous": false,
      "inputs": [
        {
          "indexed": true,
          "internalType": "address",
          "name": "owner",
          "type": "address"
        },
        {
          "indexed": true,
          "internalType": "address",
          "name": "approved",
          "type": "address"
        },
        {
          "indexed": true,
          "internalType": "uint256",
          "name": "tokenId",
          "type": "uint256"
        }
      ],
      "name": "Approval",
      "type": "event"
    },
    {
      "anonymous": false,
      "inputs": [
        {
          "indexed": true,
          "internalType": "address",
          "name": "owner",
          "type": "address"
        },
        {
          "indexed": true,
          "internalType": "address",
          "name": "operator",
          "type": "address"
        },
        {
          "indexed": false,
          "internalType": "bool",
          "name": "approved",
          "type": "bool"
        }
      ],
      "name": "ApprovalForAll",
      "type": "event"
    },
    {
      "anonymous": false,
      "inputs": [
        {
          "indexed": false,
          "internalType": "string",
          "name": "newBaseURI",
          "type": "string"
        }
      ],
      "name": "BaseURIUpdated",
      "type": "event"
    },
    {
      "anonymous": false,
      "inputs": [
        {
          "indexed": false,
          "internalType": "uint256",
          "name": "_fromTokenId",
          "type": "uint256"
        },
        {
          "indexed": false,
          "internalType": "uint256",
          "name": "_toTokenId",
          "type": "uint256"
        }
      ],
      "name": "BatchMetadataUpdate",
      "type": "event"
    },
    {
      "anonymous": false,
      "inputs": [
        {
          "indexed": false,
          "internalType": "uint256",
          "name": "_tokenId",
          "type": "uint256"
        }
      ],
      "name": "MetadataUpdate",
      "type": "event"
    },
    {
      "anonymous": false,
      "inputs": [
        {
          "indexed": false,
          "internalType": "bool",
          "name": "enabled",
          "type": "bool"
        }
      ],
      "name": "MintingStatusChanged",
      "type": "event"
    },
    {
      "anonymous": false,
      "inputs": [
        {
          "indexed": true,
          "internalType": "address",
          "name": "to",
          "type": "address"
        },
        {
          "indexed": true,
          "internalType": "uint256",
          "name": "tokenId",
          "type": "uint256"
        }
      ],
      "name": "NFTMinted",
      "type": "event"
    },
    {
      "anonymous": false,
      "inputs": [
        {
          "indexed": true,
          "internalType": "address",
          "name": "previousOwner",
          "type": "address"
        },
        {
          "indexed": true,
          "internalType": "address",
          "name": "newOwner",
          "type": "address"
        }
      ],
      "name": "OwnershipTransferred",
      "type": "event"
    },
    {
      "anonymous": false,
      "inputs": [
        {
          "indexed": true,
          "internalType": "address",
          "name": "from",
          "type": "address"
        },
        {
          "indexed": true,
          "internalType": "address",
          "name": "to",
          "type": "address"
        },
        {
          "indexed": true,
          "internalType": "uint256",
          "name": "tokenId",
          "type": "uint256"
        }
      ],
      "name": "Transfer",
      "type": "event"
    },
    {
      "anonymous": false,
      "inputs": [
        {
          "indexed": false,
          "internalType": "address[]",
          "name": "addresses",
          "type": "address[]"
        }
      ],
      "name": "WhitelistAdded",
      "type": "event"
    },
    {
      "anonymous": false,
      "inputs": [
        {
          "indexed": false,
          "internalType": "address[]",
          "name": "addresses",
          "type": "address[]"
        }
      ],
      "name": "WhitelistRemoved",
      "type": "event"
    },
    {
      "inputs": [
        {
          "internalType": "address[]",
          "name": "addresses",
          "type": "address[]"
        }
      ],
      "name": "addToWhitelist",
      "outputs": [],
      "stateMutability": "nonpayable",
      "type": "function"
    },
    {
      "inputs": [
        {
          "internalType": "address",
          "name": "to",
          "type": "address"
        },
        {
          "internalType": "uint256",
          "name": "tokenId",
          "type": "uint256"
        }
      ],
      "name": "approve",
      "outputs": [],
      "stateMutability": "nonpayable",
      "type": "function"
    },
    {
      "inputs": [
        {
          "internalType": "address",
          "name": "owner",
          "type": "address"
        }
      ],
      "name": "balanceOf",
      "outputs": [
        {
          "internalType": "uint256",
          "name": "",
          "type": "uint256"
        }
      ],
      "stateMutability": "view",
      "type": "function"
    },
    {
      "inputs": [],
      "name": "baseTokenURI",
      "outputs": [
        {
          "internalType": "string",
          "name": "",
          "type": "string"
        }
      ],
      "stateMutability": "view",
      "type": "function"
    },
    {
      "inputs": [
        {
          "internalType": "address",
          "name": "account",
          "type": "address"
        }
      ],
      "name": "canMint",
      "outputs": [
        {
          "internalType": "bool",
          "name": "",
          "type": "bool"
        }
      ],
      "stateMutability": "view",
      "type": "function"
    },
    {
      "inputs": [
        {
          "internalType": "uint256",
          "name": "tokenId",
          "type": "uint256"
        }
      ],
      "name": "getApproved",
      "outputs": [
        {
          "internalType": "address",
          "name": "",
          "type": "address"
        }
      ],
      "stateMutability": "view",
      "type": "function"
    },
    {
      "inputs": [],
      "name": "getNextTokenId",
      "outputs": [
        {
          "internalType": "uint256",
          "name": "",
          "type": "uint256"
        }
      ],
      "stateMutability": "view",
      "type": "function"
    },
    {
      "inputs": [
        {
          "internalType": "address",
          "name": "",
          "type": "address"
        }
      ],
      "name": "hasMinted",
      "outputs": [
        {
          "internalType": "bool",
          "name": "",
          "type": "bool"
        }
      ],
      "stateMutability": "view",
      "type": "function"
    },
    {
      "inputs": [
        {
          "internalType": "address",
          "name": "owner",
          "type": "address"
        },
        {
          "internalType": "address",
          "name": "operator",
          "type": "address"
        }
      ],
      "name": "isApprovedForAll",
      "outputs": [
        {
          "internalType": "bool",
          "name": "",
          "type": "bool"
        }
      ],
      "stateMutability": "view",
      "type": "function"
    },
    {
      "inputs": [],
      "name": "maxSupply",
      "outputs": [
        {
          "internalType": "uint256",
          "name": "",
          "type": "uint256"
        }
      ],
      "stateMutability": "view",
      "type": "function"
    },
    {
      "inputs": [],
      "name": "mint",
      "outputs": [],
      "stateMutability": "nonpayable",
      "type": "function"
    },
    {
      "inputs": [],
      "name": "mintingEnabled",
      "outputs": [
        {
          "internalType": "bool",
          "name": "",
          "type": "bool"
        }
      ],
      "stateMutability": "view",
      "type": "function"
    },
    {
      "inputs": [],
      "name": "name",
      "outputs": [
        {
          "internalType": "string",
          "name": "",
          "type": "string"
        }
      ],
      "stateMutability": "view",
      "type": "function"
    },
    {
      "inputs": [],
      "name": "owner",
      "outputs": [
        {
          "internalType": "address",
          "name": "",
          "type": "address"
        }
      ],
      "stateMutability": "view",
      "type": "function"
    },
    {
      "inputs": [
        {
          "internalType": "uint256",
          "name": "tokenId",
          "type": "uint256"
        }
      ],
      "name": "ownerOf",
      "outputs": [
        {
          "internalType": "address",
          "name": "",
          "type": "address"
        }
      ],
      "stateMutability": "view",
      "type": "function"
    },
    {
      "inputs": [
        {
          "internalType": "address[]",
          "name": "addresses",
          "type": "address[]"
        }
      ],
      "name": "removeFromWhitelist",
      "outputs": [],
      "stateMutability": "nonpayable",
      "type": "function"
    },
    {
      "inputs": [],
      "name": "renounceOwnership",
      "outputs": [],
      "stateMutability": "nonpayable",
      "type": "function"
    },
    {
      "inputs": [
        {
          "internalType": "address",
          "name": "from",
          "type": "address"
        },
        {
          "internalType": "address",
          "name": "to",
          "type": "address"
        },
        {
          "internalType": "uint256",
          "name": "tokenId",
          "type": "uint256"
        }
      ],
      "name": "safeTransferFrom",
      "outputs": [],
      "stateMutability": "nonpayable",
      "type": "function"
    },
    {
      "inputs": [
        {
          "internalType": "address",
          "name": "from",
          "type": "address"
        },
        {
          "internalType": "address",
          "name": "to",
          "type": "address"
        },
        {
          "internalType": "uint256",
          "name": "tokenId",
          "type": "uint256"
        },
        {
          "internalType": "bytes",
          "name": "data",
          "type": "bytes"
        }
      ],
      "name": "safeTransferFrom",
      "outputs": [],
      "stateMutability": "nonpayable",
      "type": "function"
    },
    {
      "inputs": [
        {
          "internalType": "address",
          "name": "operator",
          "type": "address"
        },
        {
          "internalType": "bool",
          "name": "approved",
          "type": "bool"
        }
      ],
      "name": "setApprovalForAll",
      "outputs": [],
      "stateMutability": "nonpayable",
      "type": "function"
    },
    {
      "inputs": [
        {
          "internalType": "string",
          "name": "newBaseURI",
          "type": "string"
        }
      ],
      "name": "setBaseURI",
      "outputs": [],
      "stateMutability": "nonpayable",
      "type": "function"
    },
    {
      "inputs": [
        {
          "internalType": "bool",
          "name": "enabled",
          "type": "bool"
        }
      ],
      "name": "setMintingEnabled",
      "outputs": [],
      "stateMutability": "nonpayable",
      "type": "function"
    },
    {
      "inputs": [
        {
          "internalType": "bytes4",
          "name": "interfaceId",
          "type": "bytes4"
        }
      ],
      "name": "supportsInterface",
      "outputs": [
        {
          "internalType": "bool",
          "name": "",
          "type": "bool"
        }
      ],
      "stateMutability": "view",
      "type": "function"
    },
    {
      "inputs": [],
      "name": "symbol",
      "outputs": [
        {
          "internalType": "string",
          "name": "",
          "type": "string"
        }
      ],
      "stateMutability": "view",
      "type": "function"
    },
    {
      "inputs": [
        {
          "internalType": "uint256",
          "name": "tokenId",
          "type": "uint256"
        }
      ],
      "name": "tokenURI",
      "outputs": [
        {
          "internalType": "string",
          "name": "",
          "type": "string"
        }
      ],
      "stateMutability": "view",
      "type": "function"
    },
    {
      "inputs": [],
      "name": "totalSupply",
      "outputs": [
        {
          "internalType": "uint256",
          "name": "",
          "type": "uint256"
        }
      ],
      "stateMutability": "view",
      "type": "function"
    },
    {
      "inputs": [
        {
          "internalType": "address",
          "name": "from",
          "type": "address"
        },
        {
          "internalType": "address",
          "name": "to",
          "type": "address"
        },
        {
          "internalType": "uint256",
          "name": "tokenId",
          "type": "uint256"
        }
      ],
      "name": "transferFrom",
      "outputs": [],
      "stateMutability": "nonpayable",
      "type": "function"
    },
    {
      "inputs": [
        {
          "internalType": "address",
          "name": "newOwner",
          "type": "address"
        }
      ],
      "name": "transferOwnership",
      "outputs": [],
      "stateMutability": "nonpayable",
      "type": "function"
    },
    {
      "inputs": [
        {
          "internalType": "address",
          "name": "",
          "type": "address"
        }
      ],
      "name": "whitelist",
      "outputs": [
        {
          "internalType": "bool",
          "name": "",
          "type": "bool"
        }
      ],
      "stateMutability": "view",
      "type": "function"
    }
  ],
  "bytecode": "0x60a06040523480156200001157600080fd5b5060405162001f5238038062001f5283398101604081905262000034916200022a565b338484600062000045838262000354565b50600162000054828262000354565b5050506001600160a01b0381166200008757604051631e4fbdf760e01b8152600060048201526024015b60405180910390fd5b620000928162000113565b5060008211620000ef5760405162461bcd60e51b815260206004820152602160248201527f4d617820737570706c79206d7573742062652067726561746572207468616e206044820152600360fc1b60648201526084016200007e565b6080829052600962000102828262000354565b505060016008555062000420915050565b600780546001600160a01b038381166001600160a01b0319831681179093556040519116919082907f8be0079c531659141344cd1fd0a4f28419497f9722a3daafe3b4186f6b6457e090600090a35050565b634e487b7160e01b600052604160045260246000fd5b600082601f8301126200018d57600080fd5b81516001600160401b0380821115620001aa57620001aa62000165565b604051601f8301601f19908116603f01168101908282118183101715620001d557620001d562000165565b81604052838152602092508683858801011115620001f257600080fd5b600091505b83821015620002165785820183015181830184015290820190620001f7565b600093810190920192909252949350505050565b600080600080608085870312156200024157600080fd5b84516001600160401b03808211156200025957600080fd5b62000267888389016200017b565b955060208701519150808211156200027e57600080fd5b6200028c888389016200017b565b9450604087015193506060870151915080821115620002aa57600080fd5b50620002b9878288016200017b565b91505092959194509250565b600181811c90821680620002da57607f821691505b602082108103620002fb57634e487b7160e01b600052602260045260246000fd5b50919050565b601f8211156200034f57600081815260208120601f850160051c810160208610156200032a5750805b601f850160051c820191505b818110156200034b5782815560010162000336565b5050505b505050565b81516001600160401b0381111562000370576200037062000165565b6200038881620003818454620002c5565b8462000301565b602080601f831160018114620003c05760008415620003a75750858301515b600019600386901b1c1916600185901b1785556200034b565b600085815260208120601f198616915b82811015620003f157888601518255948401946001909101908401620003d0565b5085821015620004105787850151600019600388901b60f8161c191681555b5050505050600190811b01905550565b608051611b086200044a600039600081816103dc0152818161060d0152610a850152611b086000f3fe608060405234801561001057600080fd5b50600436106101cf5760003560e01c8063715018a611610104578063b88d4fde116100a2578063d547cfb711610071578063d547cfb7146103cf578063d5abeb01146103d7578063e985e9c5146103fe578063f2fde38b1461041157600080fd5b8063b88d4fde1461038e578063c2ba4744146103a1578063c87b56dd146103b4578063caa0f92a146103c757600080fd5b806395d89b41116100de57806395d89b41146103435780639b19251a1461034b5780639fd6db121461036e578063a22cb4651461037b57600080fd5b8063715018a6146103175780637f6497831461031f5780638da5cb5b1461033257600080fd5b806338e21cce11610171578063548db1741161014b578063548db174146102cb57806355f804b3146102de5780636352211e146102f157806370a082311461030457600080fd5b806338e21cce1461028257806342842e0e146102a55780634ea3871a146102b857600080fd5b8063095ea7b3116101ad578063095ea7b31461023c5780631249c58b1461025157806318160ddd1461025957806323b872dd1461026f57600080fd5b806301ffc9a7146101d457806306fdde03146101fc578063081812fc14610211575b600080fd5b6101e76101e23660046114e1565b610424565b60405190151581526020015b60405180910390f35b61020461044f565b6040516101f3919061154e565b61022461021f366004611561565b6104e1565b6040516001600160a01b0390911681526020016101f3565b61024f61024a366004611596565b61050a565b005b61024f610519565b6102616106d8565b6040519081526020016101f3565b61024f61027d3660046115c0565b6106ee565b6101e76102903660046115fc565b600a6020526000908152604090205460ff1681565b61024f6102b33660046115c0565b610779565b61024f6102c6366004611627565b610799565b61024f6102d9366004611642565b6107e9565b61024f6102ec366004611743565b6108a1565b6102246102ff366004611561565b6108e5565b6102616103123660046115fc565b6108f0565b61024f610938565b61024f61032d366004611642565b61094c565b6007546001600160a01b0316610224565b6102046109f8565b6101e76103593660046115fc565b600b6020526000908152604090205460ff1681565b600c546101e79060ff1681565b61024f61038936600461178c565b610a07565b61024f61039c3660046117bf565b610a12565b6101e76103af3660046115fc565b610a2a565b6102046103c2366004611561565b610aaf565b600854610261565b610204610bb3565b6102617f000000000000000000000000000000000000000000000000000000000000000081565b6101e761040c36600461183b565b610c41565b61024f61041f3660046115fc565b610c6f565b60006001600160e01b03198216632483248360e11b1480610449575061044982610cad565b92915050565b60606000805461045e90611865565b80601f016020809104026020016040519081016040528092919081815260200182805461048a90611865565b80156104d75780601f106104ac576101008083540402835291602001916104d7565b820191906000526020600020905b8154815290600101906020018083116104ba57829003601f168201915b5050505050905090565b60006104ec82610cfd565b506000828152600460205260409020546001600160a01b0316610449565b610515828233610d36565b5050565b600c5460ff166105695760405162461bcd60e51b8152602060048201526016602482015275135a5b9d1a5b99c81a5cc81b9bdd08195b98589b195960521b60448201526064015b60405180910390fd5b336000908152600b602052604090205460ff166105ba5760405162461bcd60e51b815260206004820152600f60248201526e139bdd081dda1a5d195b1a5cdd1959608a1b6044820152606401610560565b336000908152600a602052604090205460ff161561060b5760405162461bcd60e51b815260206004820152600e60248201526d105b1c9958591e481b5a5b9d195960921b6044820152606401610560565b7f000000000000000000000000000000000000000000000000000000000000000060085411156106725760405162461bcd60e51b815260206004820152601260248201527113585e081cdd5c1c1b1e481c995858da195960721b6044820152606401610560565b600880549081906000610684836118b5565b91905055506106933382610d43565b336000818152600a6020526040808220805460ff19166001179055518392917f4cc0a9c4a99ddc700de1af2c9f916a7cbfdb71f14801ccff94061ad1ef8a804091a350565b600060016008546106e991906118ce565b905090565b6001600160a01b03821661071857604051633250574960e11b815260006004820152602401610560565b6000610725838333610d5d565b9050836001600160a01b0316816001600160a01b031614610773576040516364283d7b60e01b81526001600160a01b0380861660048301526024820184905282166044820152606401610560565b50505050565b61079483838360405180602001604052806000815250610a12565b505050565b6107a1610e56565b600c805460ff19168215159081179091556040519081527f41f386d449eec03c1c3b75bbba9c18df70aa19779ff47f68eab4b6a66fb399d4906020015b60405180910390a150565b6107f1610e56565b60005b81811015610863576000600b6000858585818110610814576108146118e1565b905060200201602081019061082991906115fc565b6001600160a01b031681526020810191909152604001600020805460ff19169115159190911790558061085b816118b5565b9150506107f4565b507f1d474f57a5c483b47a8bf6006e39086f96dd040a00cb348e22f80a4ca2c6f22282826040516108959291906118f7565b60405180910390a15050565b6108a9610e56565b60096108b58282611989565b507f6741b2fc379fad678116fe3d4d4b9a1a184ab53ba36b86ad0fa66340b1ab41ad816040516107de919061154e565b600061044982610cfd565b60006001600160a01b03821661091c576040516322718ad960e21b815260006004820152602401610560565b506001600160a01b031660009081526003602052604090205490565b610940610e56565b61094a6000610e83565b565b610954610e56565b60005b818110156109c6576001600b6000858585818110610977576109776118e1565b905060200201602081019061098c91906115fc565b6001600160a01b031681526020810191909152604001600020805460ff1916911515919091179055806109be816118b5565b915050610957565b507ff74f148a4f930a0f67a2c33ba932a14e3e91b4e6468f21e545932fd82511153882826040516108959291906118f7565b60606001805461045e90611865565b610515338383610ed5565b610a1d8484846106ee565b6107733385858585610f74565b600c5460009060ff168015610a5757506001600160a01b0382166000908152600b602052604090205460ff165b8015610a7c57506001600160a01b0382166000908152600a602052604090205460ff16155b801561044957507f0000000000000000000000000000000000000000000000000000000000000000600854111592915050565b6060610aba82610cfd565b5060008281526006602052604081208054610ad490611865565b80601f0160208091040260200160405190810160405280929190818152602001828054610b0090611865565b8015610b4d5780601f10610b2257610100808354040283529160200191610b4d565b820191906000526020600020905b815481529060010190602001808311610b3057829003601f168201915b505050505090506000610b5e61109f565b90508051600003610b70575092915050565b815115610ba2578082604051602001610b8a929190611a49565b60405160208183030381529060405292505050919050565b610bab846110ae565b949350505050565b60098054610bc090611865565b80601f0160208091040260200160405190810160405280929190818152602001828054610bec90611865565b8015610c395780601f10610c0e57610100808354040283529160200191610c39565b820191906000526020600020905b815481529060010190602001808311610c1c57829003601f168201915b505050505081565b6001600160a01b03918216600090815260056020908152604080832093909416825291909152205460ff1690565b610c77610e56565b6001600160a01b038116610ca157604051631e4fbdf760e01b815260006004820152602401610560565b610caa81610e83565b50565b60006001600160e01b031982166380ac58cd60e01b1480610cde57506001600160e01b03198216635b5e139f60e01b145b8061044957506301ffc9a760e01b6001600160e01b0319831614610449565b6000818152600260205260408120546001600160a01b03168061044957604051637e27328960e01b815260048101849052602401610560565b6107948383836001611116565b61051582826040518060200160405280600081525061121c565b6000828152600260205260408120546001600160a01b0390811690831615610d8a57610d8a818486611234565b6001600160a01b03811615610dc857610da7600085600080611116565b6001600160a01b038116600090815260036020526040902080546000190190555b6001600160a01b03851615610df7576001600160a01b0385166000908152600360205260409020805460010190555b60008481526002602052604080822080546001600160a01b0319166001600160a01b0389811691821790925591518793918516917fddf252ad1be2c89b69c2b068fc378daa952ba7f163c4a11628f55a4df523b3ef91a4949350505050565b6007546001600160a01b0316331461094a5760405163118cdaa760e01b8152336004820152602401610560565b600780546001600160a01b038381166001600160a01b0319831681179093556040519116919082907f8be0079c531659141344cd1fd0a4f28419497f9722a3daafe3b4186f6b6457e090600090a35050565b6001600160a01b038216610f0757604051630b61174360e31b81526001600160a01b0383166004820152602401610560565b6001600160a01b03838116600081815260056020908152604080832094871680845294825291829020805460ff191686151590811790915591519182527f17307eab39ab6107e8899845ad3d59bd9653f200f220920489ca2b5937696c31910160405180910390a3505050565b6001600160a01b0383163b1561109857604051630a85bd0160e11b81526001600160a01b0384169063150b7a0290610fb6908890889087908790600401611a78565b6020604051808303816000875af1925050508015610ff1575060408051601f3d908101601f19168201909252610fee91810190611ab5565b60015b61105a573d80801561101f576040519150601f19603f3d011682016040523d82523d6000602084013e611024565b606091505b50805160000361105257604051633250574960e11b81526001600160a01b0385166004820152602401610560565b805160208201fd5b6001600160e01b03198116630a85bd0160e11b1461109657604051633250574960e11b81526001600160a01b0385166004820152602401610560565b505b5050505050565b60606009805461045e90611865565b60606110b982610cfd565b5060006110c461109f565b905060008151116110e4576040518060200160405280600081525061110f565b806110ee84611298565b6040516020016110ff929190611a49565b6040516020818303038152906040525b9392505050565b808061112a57506001600160a01b03821615155b156111ec57600061113a84610cfd565b90506001600160a01b038316158015906111665750826001600160a01b0316816001600160a01b031614155b801561117957506111778184610c41565b155b156111a25760405163a9fbf51f60e01b81526001600160a01b0384166004820152602401610560565b81156111ea5783856001600160a01b0316826001600160a01b03167f8c5be1e5ebec7d5bd14f71427d1e84f3dd0314c0f7b2291e5b200ac8c7c3b92560405160405180910390a45b505b5050600090815260046020526040902080546001600160a01b0319166001600160a01b0392909216919091179055565b611226838361132b565b610794336000858585610f74565b61123f838383611390565b610794576001600160a01b03831661126d57604051637e27328960e01b815260048101829052602401610560565b60405163177e802f60e01b81526001600160a01b038316600482015260248101829052604401610560565b606060006112a5836113f3565b600101905060008167ffffffffffffffff8111156112c5576112c56116b7565b6040519080825280601f01601f1916602001820160405280156112ef576020820181803683370190505b5090508181016020015b600019016f181899199a1a9b1b9c1cb0b131b232b360811b600a86061a8153600a85049450846112f957509392505050565b6001600160a01b03821661135557604051633250574960e11b815260006004820152602401610560565b600061136383836000610d5d565b90506001600160a01b03811615610794576040516339e3563760e11b815260006004820152602401610560565b60006001600160a01b03831615801590610bab5750826001600160a01b0316846001600160a01b031614806113ca57506113ca8484610c41565b80610bab5750506000908152600460205260409020546001600160a01b03908116911614919050565b60008072184f03e93ff9f4daa797ed6e38ed64bf6a1f0160401b83106114325772184f03e93ff9f4daa797ed6e38ed64bf6a1f0160401b830492506040015b6d04ee2d6d415b85acef8100000000831061145e576d04ee2d6d415b85acef8100000000830492506020015b662386f26fc10000831061147c57662386f26fc10000830492506010015b6305f5e1008310611494576305f5e100830492506008015b61271083106114a857612710830492506004015b606483106114ba576064830492506002015b600a83106104495760010192915050565b6001600160e01b031981168114610caa57600080fd5b6000602082840312156114f357600080fd5b813561110f816114cb565b60005b83811015611519578181015183820152602001611501565b50506000910152565b6000815180845261153a8160208601602086016114fe565b601f01601f19169290920160200192915050565b60208152600061110f6020830184611522565b60006020828403121561157357600080fd5b5035919050565b80356001600160a01b038116811461159157600080fd5b919050565b600080604083850312156115a957600080fd5b6115b28361157a565b946020939093013593505050565b6000806000606084860312156115d557600080fd5b6115de8461157a565b92506115ec6020850161157a565b9150604084013590509250925092565b60006020828403121561160e57600080fd5b61110f8261157a565b8035801515811461159157600080fd5b60006020828403121561163957600080fd5b61110f82611617565b6000806020838503121561165557600080fd5b823567ffffffffffffffff8082111561166d57600080fd5b818501915085601f83011261168157600080fd5b81358181111561169057600080fd5b8660208260051b85010111156116a557600080fd5b60209290920196919550909350505050565b634e487b7160e01b600052604160045260246000fd5b600067ffffffffffffffff808411156116e8576116e86116b7565b604051601f8501601f19908116603f01168101908282118183101715611710576117106116b7565b8160405280935085815286868601111561172957600080fd5b858560208301376000602087830101525050509392505050565b60006020828403121561175557600080fd5b813567ffffffffffffffff81111561176c57600080fd5b8201601f8101841361177d57600080fd5b610bab848235602084016116cd565b6000806040838503121561179f57600080fd5b6117a88361157a565b91506117b660208401611617565b90509250929050565b600080600080608085870312156117d557600080fd5b6117de8561157a565b93506117ec6020860161157a565b925060408501359150606085013567ffffffffffffffff81111561180f57600080fd5b8501601f8101871361182057600080fd5b61182f878235602084016116cd565b91505092959194509250565b6000806040838503121561184e57600080fd5b6118578361157a565b91506117b66020840161157a565b600181811c9082168061187957607f821691505b60208210810361189957634e487b7160e01b600052602260045260246000fd5b50919050565b634e487b7160e01b600052601160045260246000fd5b6000600182016118c7576118c761189f565b5060010190565b818103818111156104495761044961189f565b634e487b7160e01b600052603260045260246000fd5b60208082528181018390526000908460408401835b86811015611938576001600160a01b036119258461157a565b168252918301919083019060010161190c565b509695505050505050565b601f82111561079457600081815260208120601f850160051c8101602086101561196a5750805b601f850160051c820191505b8181101561109657828155600101611976565b815167ffffffffffffffff8111156119a3576119a36116b7565b6119b7816119b18454611865565b84611943565b602080601f8311600181146119ec57600084156119d45750858301515b600019600386901b1c1916600185901b178555611096565b600085815260208120601f198616915b82811015611a1b578886015182559484019460019091019084016119fc565b5085821015611a395787850151600019600388901b60f8161c191681555b5050505050600190811b01905550565b60008351611a5b8184602088016114fe565b835190830190611a6f8183602088016114fe565b01949350505050565b6001600160a01b0385811682528416602082015260408101839052608060608201819052600090611aab90830184611522565b9695505050505050565b600060208284031215611ac757600080fd5b815161110f816114cb56fea26469706673582212205deb89d76bd78e80d9fc8ec51c736f5ae74f4668e0190e5f06f1d119b2ad682664736f6c63430008140033",
  "linkReferences": {},
  "deployedLinkReferences": {}
}