{
  "_format": "hh-sol-artifact-1",
  "contractName": "RWAHackathonNFT",
  "sourceName": "contracts/RWAHackathonNFT.sol",
  "abi": [
    {
      "inputs": [
        {
          "internalType": "string",
          "name": "name",
          "type": "string"
        },
        {
          "internalType": "string",
          "name": "symbol",
          "type": "string"
        },
        {
          "internalType": "uint256",
          "name": "_maxSupply",
          "type": "uint256"
        },
        {
          "internalType": "string",
          "name": "_baseTokenURI",
          "type": "string"
        },
        {
          "internalType": "bytes32",
          "name": "_merkleRoot",
          "type": "bytes32"
        }
      ],
      "stateMutability": "nonpayable",
      "type": "constructor"
    },
    {
      "inputs": [
        {
          "internalType": "address",
          "name": "sender",
          "type": "address"
        },
        {
          "internalType": "uint256",
          "name": "tokenId",
          "type": "uint256"
        },
        {
          "internalType": "address",
          "name": "owner",
          "type": "address"
        }
      ],
      "name": "ERC721IncorrectOwner",
      "type": "error"
    },
    {
      "inputs": [
        {
          "internalType": "address",
          "name": "operator",
          "type": "address"
        },
        {
          "internalType": "uint256",
          "name": "tokenId",
          "type": "uint256"
        }
      ],
      "name": "ERC721InsufficientApproval",
      "type": "error"
    },
    {
      "inputs": [
        {
          "internalType": "address",
          "name": "approver",
          "type": "address"
        }
      ],
      "name": "ERC721InvalidApprover",
      "type": "error"
    },
    {
      "inputs": [
        {
          "internalType": "address",
          "name": "operator",
          "type": "address"
        }
      ],
      "name": "ERC721InvalidOperator",
      "type": "error"
    },
    {
      "inputs": [
        {
          "internalType": "address",
          "name": "owner",
          "type": "address"
        }
      ],
      "name": "ERC721InvalidOwner",
      "type": "error"
    },
    {
      "inputs": [
        {
          "internalType": "address",
          "name": "receiver",
          "type": "address"
        }
      ],
      "name": "ERC721InvalidReceiver",
      "type": "error"
    },
    {
      "inputs": [
        {
          "internalType": "address",
          "name": "sender",
          "type": "address"
        }
      ],
      "name": "ERC721InvalidSender",
      "type": "error"
    },
    {
      "inputs": [
        {
          "internalType": "uint256",
          "name": "tokenId",
          "type": "uint256"
        }
      ],
      "name": "ERC721NonexistentToken",
      "type": "error"
    },
    {
      "inputs": [
        {
          "internalType": "address",
          "name": "owner",
          "type": "address"
        }
      ],
      "name": "OwnableInvalidOwner",
      "type": "error"
    },
    {
      "inputs": [
        {
          "internalType": "address",
          "name": "account",
          "type": "address"
        }
      ],
      "name": "OwnableUnauthorizedAccount",
      "type": "error"
    },
    {
      "anonymous": false,
      "inputs": [
        {
          "indexed": true,
          "internalType": "address",
          "name": "owner",
          "type": "address"
        },
        {
          "indexed": true,
          "internalType": "address",
          "name": "approved",
          "type": "address"
        },
        {
          "indexed": true,
          "internalType": "uint256",
          "name": "tokenId",
          "type": "uint256"
        }
      ],
      "name": "Approval",
      "type": "event"
    },
    {
      "anonymous": false,
      "inputs": [
        {
          "indexed": true,
          "internalType": "address",
          "name": "owner",
          "type": "address"
        },
        {
          "indexed": true,
          "internalType": "address",
          "name": "operator",
          "type": "address"
        },
        {
          "indexed": false,
          "internalType": "bool",
          "name": "approved",
          "type": "bool"
        }
      ],
      "name": "ApprovalForAll",
      "type": "event"
    },
    {
      "anonymous": false,
      "inputs": [
        {
          "indexed": false,
          "internalType": "string",
          "name": "newBaseURI",
          "type": "string"
        }
      ],
      "name": "BaseURIUpdated",
      "type": "event"
    },
    {
      "anonymous": false,
      "inputs": [
        {
          "indexed": false,
          "internalType": "uint256",
          "name": "_fromTokenId",
          "type": "uint256"
        },
        {
          "indexed": false,
          "internalType": "uint256",
          "name": "_toTokenId",
          "type": "uint256"
        }
      ],
      "name": "BatchMetadataUpdate",
      "type": "event"
    },
    {
      "anonymous": false,
      "inputs": [
        {
          "indexed": false,
          "internalType": "bytes32",
          "name": "newRoot",
          "type": "bytes32"
        }
      ],
      "name": "MerkleRootUpdated",
      "type": "event"
    },
    {
      "anonymous": false,
      "inputs": [
        {
          "indexed": false,
          "internalType": "uint256",
          "name": "_tokenId",
          "type": "uint256"
        }
      ],
      "name": "MetadataUpdate",
      "type": "event"
    },
    {
      "anonymous": false,
      "inputs": [
        {
          "indexed": false,
          "internalType": "bool",
          "name": "enabled",
          "type": "bool"
        }
      ],
      "name": "MintingStatusChanged",
      "type": "event"
    },
    {
      "anonymous": false,
      "inputs": [
        {
          "indexed": true,
          "internalType": "address",
          "name": "to",
          "type": "address"
        },
        {
          "indexed": true,
          "internalType": "uint256",
          "name": "tokenId",
          "type": "uint256"
        },
        {
          "indexed": false,
          "internalType": "bytes32",
          "name": "emailHash",
          "type": "bytes32"
        }
      ],
      "name": "NFTMinted",
      "type": "event"
    },
    {
      "anonymous": false,
      "inputs": [
        {
          "indexed": true,
          "internalType": "address",
          "name": "previousOwner",
          "type": "address"
        },
        {
          "indexed": true,
          "internalType": "address",
          "name": "newOwner",
          "type": "address"
        }
      ],
      "name": "OwnershipTransferred",
      "type": "event"
    },
    {
      "anonymous": false,
      "inputs": [
        {
          "indexed": true,
          "internalType": "address",
          "name": "from",
          "type": "address"
        },
        {
          "indexed": true,
          "internalType": "address",
          "name": "to",
          "type": "address"
        },
        {
          "indexed": true,
          "internalType": "uint256",
          "name": "tokenId",
          "type": "uint256"
        }
      ],
      "name": "Transfer",
      "type": "event"
    },
    {
      "inputs": [
        {
          "internalType": "address",
          "name": "to",
          "type": "address"
        },
        {
          "internalType": "uint256",
          "name": "tokenId",
          "type": "uint256"
        }
      ],
      "name": "approve",
      "outputs": [],
      "stateMutability": "nonpayable",
      "type": "function"
    },
    {
      "inputs": [
        {
          "internalType": "address",
          "name": "owner",
          "type": "address"
        }
      ],
      "name": "balanceOf",
      "outputs": [
        {
          "internalType": "uint256",
          "name": "",
          "type": "uint256"
        }
      ],
      "stateMutability": "view",
      "type": "function"
    },
    {
      "inputs": [],
      "name": "baseTokenURI",
      "outputs": [
        {
          "internalType": "string",
          "name": "",
          "type": "string"
        }
      ],
      "stateMutability": "view",
      "type": "function"
    },
    {
      "inputs": [
        {
          "internalType": "uint256",
          "name": "tokenId",
          "type": "uint256"
        }
      ],
      "name": "getApproved",
      "outputs": [
        {
          "internalType": "address",
          "name": "",
          "type": "address"
        }
      ],
      "stateMutability": "view",
      "type": "function"
    },
    {
      "inputs": [],
      "name": "getNextTokenId",
      "outputs": [
        {
          "internalType": "uint256",
          "name": "",
          "type": "uint256"
        }
      ],
      "stateMutability": "view",
      "type": "function"
    },
    {
      "inputs": [
        {
          "internalType": "bytes32",
          "name": "emailHash",
          "type": "bytes32"
        }
      ],
      "name": "hasEmailMinted",
      "outputs": [
        {
          "internalType": "bool",
          "name": "",
          "type": "bool"
        }
      ],
      "stateMutability": "view",
      "type": "function"
    },
    {
      "inputs": [
        {
          "internalType": "bytes32",
          "name": "",
          "type": "bytes32"
        }
      ],
      "name": "hasMinted",
      "outputs": [
        {
          "internalType": "bool",
          "name": "",
          "type": "bool"
        }
      ],
      "stateMutability": "view",
      "type": "function"
    },
    {
      "inputs": [
        {
          "internalType": "address",
          "name": "owner",
          "type": "address"
        },
        {
          "internalType": "address",
          "name": "operator",
          "type": "address"
        }
      ],
      "name": "isApprovedForAll",
      "outputs": [
        {
          "internalType": "bool",
          "name": "",
          "type": "bool"
        }
      ],
      "stateMutability": "view",
      "type": "function"
    },
    {
      "inputs": [],
      "name": "maxSupply",
      "outputs": [
        {
          "internalType": "uint256",
          "name": "",
          "type": "uint256"
        }
      ],
      "stateMutability": "view",
      "type": "function"
    },
    {
      "inputs": [],
      "name": "merkleRoot",
      "outputs": [
        {
          "internalType": "bytes32",
          "name": "",
          "type": "bytes32"
        }
      ],
      "stateMutability": "view",
      "type": "function"
    },
    {
      "inputs": [
        {
          "internalType": "bytes32",
          "name": "emailHash",
          "type": "bytes32"
        },
        {
          "internalType": "bytes32[]",
          "name": "merkleProof",
          "type": "bytes32[]"
        }
      ],
      "name": "mint",
      "outputs": [],
      "stateMutability": "nonpayable",
      "type": "function"
    },
    {
      "inputs": [],
      "name": "mintingEnabled",
      "outputs": [
        {
          "internalType": "bool",
          "name": "",
          "type": "bool"
        }
      ],
      "stateMutability": "view",
      "type": "function"
    },
    {
      "inputs": [],
      "name": "name",
      "outputs": [
        {
          "internalType": "string",
          "name": "",
          "type": "string"
        }
      ],
      "stateMutability": "view",
      "type": "function"
    },
    {
      "inputs": [],
      "name": "owner",
      "outputs": [
        {
          "internalType": "address",
          "name": "",
          "type": "address"
        }
      ],
      "stateMutability": "view",
      "type": "function"
    },
    {
      "inputs": [
        {
          "internalType": "uint256",
          "name": "tokenId",
          "type": "uint256"
        }
      ],
      "name": "ownerOf",
      "outputs": [
        {
          "internalType": "address",
          "name": "",
          "type": "address"
        }
      ],
      "stateMutability": "view",
      "type": "function"
    },
    {
      "inputs": [],
      "name": "renounceOwnership",
      "outputs": [],
      "stateMutability": "nonpayable",
      "type": "function"
    },
    {
      "inputs": [
        {
          "internalType": "address",
          "name": "from",
          "type": "address"
        },
        {
          "internalType": "address",
          "name": "to",
          "type": "address"
        },
        {
          "internalType": "uint256",
          "name": "tokenId",
          "type": "uint256"
        }
      ],
      "name": "safeTransferFrom",
      "outputs": [],
      "stateMutability": "nonpayable",
      "type": "function"
    },
    {
      "inputs": [
        {
          "internalType": "address",
          "name": "from",
          "type": "address"
        },
        {
          "internalType": "address",
          "name": "to",
          "type": "address"
        },
        {
          "internalType": "uint256",
          "name": "tokenId",
          "type": "uint256"
        },
        {
          "internalType": "bytes",
          "name": "data",
          "type": "bytes"
        }
      ],
      "name": "safeTransferFrom",
      "outputs": [],
      "stateMutability": "nonpayable",
      "type": "function"
    },
    {
      "inputs": [
        {
          "internalType": "address",
          "name": "operator",
          "type": "address"
        },
        {
          "internalType": "bool",
          "name": "approved",
          "type": "bool"
        }
      ],
      "name": "setApprovalForAll",
      "outputs": [],
      "stateMutability": "nonpayable",
      "type": "function"
    },
    {
      "inputs": [
        {
          "internalType": "string",
          "name": "newBaseURI",
          "type": "string"
        }
      ],
      "name": "setBaseURI",
      "outputs": [],
      "stateMutability": "nonpayable",
      "type": "function"
    },
    {
      "inputs": [
        {
          "internalType": "bytes32",
          "name": "_merkleRoot",
          "type": "bytes32"
        }
      ],
      "name": "setMerkleRoot",
      "outputs": [],
      "stateMutability": "nonpayable",
      "type": "function"
    },
    {
      "inputs": [
        {
          "internalType": "bool",
          "name": "enabled",
          "type": "bool"
        }
      ],
      "name": "setMintingEnabled",
      "outputs": [],
      "stateMutability": "nonpayable",
      "type": "function"
    },
    {
      "inputs": [
        {
          "internalType": "bytes32",
          "name": "_merkleRoot",
          "type": "bytes32"
        }
      ],
      "name": "setupAndEnableMinting",
      "outputs": [],
      "stateMutability": "nonpayable",
      "type": "function"
    },
    {
      "inputs": [
        {
          "internalType": "bytes4",
          "name": "interfaceId",
          "type": "bytes4"
        }
      ],
      "name": "supportsInterface",
      "outputs": [
        {
          "internalType": "bool",
          "name": "",
          "type": "bool"
        }
      ],
      "stateMutability": "view",
      "type": "function"
    },
    {
      "inputs": [],
      "name": "symbol",
      "outputs": [
        {
          "internalType": "string",
          "name": "",
          "type": "string"
        }
      ],
      "stateMutability": "view",
      "type": "function"
    },
    {
      "inputs": [
        {
          "internalType": "uint256",
          "name": "tokenId",
          "type": "uint256"
        }
      ],
      "name": "tokenURI",
      "outputs": [
        {
          "internalType": "string",
          "name": "",
          "type": "string"
        }
      ],
      "stateMutability": "view",
      "type": "function"
    },
    {
      "inputs": [],
      "name": "totalSupply",
      "outputs": [
        {
          "internalType": "uint256",
          "name": "",
          "type": "uint256"
        }
      ],
      "stateMutability": "view",
      "type": "function"
    },
    {
      "inputs": [
        {
          "internalType": "address",
          "name": "from",
          "type": "address"
        },
        {
          "internalType": "address",
          "name": "to",
          "type": "address"
        },
        {
          "internalType": "uint256",
          "name": "tokenId",
          "type": "uint256"
        }
      ],
      "name": "transferFrom",
      "outputs": [],
      "stateMutability": "nonpayable",
      "type": "function"
    },
    {
      "inputs": [
        {
          "internalType": "address",
          "name": "newOwner",
          "type": "address"
        }
      ],
      "name": "transferOwnership",
      "outputs": [],
      "stateMutability": "nonpayable",
      "type": "function"
    },
    {
      "inputs": [
        {
          "internalType": "bytes32",
          "name": "emailHash",
          "type": "bytes32"
        },
        {
          "internalType": "bytes32[]",
          "name": "merkleProof",
          "type": "bytes32[]"
        }
      ],
      "name": "verifyWhitelist",
      "outputs": [
        {
          "internalType": "bool",
          "name": "",
          "type": "bool"
        }
      ],
      "stateMutability": "view",
      "type": "function"
    }
  ],
  "bytecode": "0x60a06040523480156200001157600080fd5b5060405162001d6638038062001d668339810160408190526200003491620002a4565b3385856000620000458382620003d8565b506001620000548282620003d8565b5050506001600160a01b0381166200008757604051631e4fbdf760e01b8152600060048201526024015b60405180910390fd5b62000092816200018d565b5060008311620000ef5760405162461bcd60e51b815260206004820152602160248201527f4d617820737570706c79206d7573742062652067726561746572207468616e206044820152600360fc1b60648201526084016200007e565b60808390526009620001028382620003d8565b50600a819055600c805460ff191660019081179091556008556040518181527f90004c04698bc3322499a575ed3752dd4abf33e0a7294c06a787a0fe01bea9419060200160405180910390a1604051600181527f41f386d449eec03c1c3b75bbba9c18df70aa19779ff47f68eab4b6a66fb399d49060200160405180910390a15050505050620004a4565b600780546001600160a01b038381166001600160a01b0319831681179093556040519116919082907f8be0079c531659141344cd1fd0a4f28419497f9722a3daafe3b4186f6b6457e090600090a35050565b634e487b7160e01b600052604160045260246000fd5b600082601f8301126200020757600080fd5b81516001600160401b0380821115620002245762000224620001df565b604051601f8301601f19908116603f011681019082821181831017156200024f576200024f620001df565b816040528381526020925086838588010111156200026c57600080fd5b600091505b8382101562000290578582018301518183018401529082019062000271565b600093810190920192909252949350505050565b600080600080600060a08688031215620002bd57600080fd5b85516001600160401b0380821115620002d557600080fd5b620002e389838a01620001f5565b96506020880151915080821115620002fa57600080fd5b6200030889838a01620001f5565b95506040880151945060608801519150808211156200032657600080fd5b506200033588828901620001f5565b925050608086015190509295509295909350565b600181811c908216806200035e57607f821691505b6020821081036200037f57634e487b7160e01b600052602260045260246000fd5b50919050565b601f821115620003d357600081815260208120601f850160051c81016020861015620003ae5750805b601f850160051c820191505b81811015620003cf57828155600101620003ba565b5050505b505050565b81516001600160401b03811115620003f457620003f4620001df565b6200040c8162000405845462000349565b8462000385565b602080601f8311600181146200044457600084156200042b5750858301515b600019600386901b1c1916600185901b178555620003cf565b600085815260208120601f198616915b82811015620004755788860151825594840194600190910190840162000454565b5085821015620004945787850151600019600388901b60f8161c191681555b5050505050600190811b01905550565b60805161189f620004c7600039600081816103e80152610a50015261189f6000f3fe608060405234801561001057600080fd5b50600436106101da5760003560e01c80637cb6475911610104578063b88d4fde116100a2578063d5abeb0111610071578063d5abeb01146103e3578063e985e9c51461040a578063ea58f5a71461041d578063f2fde38b1461043057600080fd5b8063b88d4fde146103ad578063c87b56dd146103c0578063caa0f92a146103d3578063d547cfb7146103db57600080fd5b80638f058d53116100de5780638f058d531461036257806395d89b41146103855780639fd6db121461038d578063a22cb4651461039a57600080fd5b80637cb647591461031b5780637dbd77db1461032e5780638da5cb5b1461035157600080fd5b80632eb4a7ab1161017c57806355f804b31161014b57806355f804b3146102da5780636352211e146102ed57806370a0823114610300578063715018a61461031357600080fd5b80632eb4a7ab14610298578063329ea90d146102a157806342842e0e146102b45780634ea3871a146102c757600080fd5b8063095ea7b3116101b8578063095ea7b31461024757806318160ddd1461025c57806323b872dd146102725780632924a9ec1461028557600080fd5b806301ffc9a7146101df57806306fdde0314610207578063081812fc1461021c575b600080fd5b6101f26101ed3660046112eb565b610443565b60405190151581526020015b60405180910390f35b61020f61046e565b6040516101fe919061134e565b61022f61022a366004611361565b610500565b6040516001600160a01b0390911681526020016101fe565b61025a610255366004611396565b610529565b005b610264610538565b6040519081526020016101fe565b61025a6102803660046113c0565b61054e565b61025a610293366004611361565b6105de565b610264600a5481565b6101f26102af3660046113fc565b61066a565b61025a6102c23660046113c0565b6106c7565b61025a6102d536600461148b565b6106e7565b61025a6102e8366004611532565b610730565b61022f6102fb366004611361565b610774565b61026461030e366004611583565b61077f565b61025a6107c7565b61025a610329366004611361565b6107db565b6101f261033c366004611361565b600b6020526000908152604090205460ff1681565b6007546001600160a01b031661022f565b6101f2610370366004611361565b6000908152600b602052604090205460ff1690565b61020f610818565b600c546101f29060ff1681565b61025a6103a836600461159e565b610827565b61025a6103bb3660046115d1565b610832565b61020f6103ce366004611361565b61084a565b600854610264565b61020f6108ac565b6102647f000000000000000000000000000000000000000000000000000000000000000081565b6101f261041836600461164d565b61093a565b61025a61042b3660046113fc565b610968565b61025a61043e366004611583565b610bbd565b60006001600160e01b03198216632483248360e11b1480610468575061046882610bfb565b92915050565b60606000805461047d90611677565b80601f01602080910402602001604051908101604052809291908181526020018280546104a990611677565b80156104f65780601f106104cb576101008083540402835291602001916104f6565b820191906000526020600020905b8154815290600101906020018083116104d957829003601f168201915b5050505050905090565b600061050b82610c4b565b506000828152600460205260409020546001600160a01b0316610468565b610534828233610c84565b5050565b6000600160085461054991906116c7565b905090565b6001600160a01b03821661057d57604051633250574960e11b8152600060048201526024015b60405180910390fd5b600061058a838333610c91565b9050836001600160a01b0316816001600160a01b0316146105d8576040516364283d7b60e01b81526001600160a01b0380861660048301526024820184905282166044820152606401610574565b50505050565b6105e6610d8a565b600a819055600c805460ff191660011790556040517f90004c04698bc3322499a575ed3752dd4abf33e0a7294c06a787a0fe01bea9419061062a9083815260200190565b60405180910390a1604051600181527f41f386d449eec03c1c3b75bbba9c18df70aa19779ff47f68eab4b6a66fb399d4906020015b60405180910390a150565b600a5460009061067c575060006106c0565b6106bd83838080602002602001604051908101604052809392919081815260200183836020028082843760009201919091525050600a549150879050610db7565b90505b9392505050565b6106e283838360405180602001604052806000815250610832565b505050565b6106ef610d8a565b600c805460ff19168215159081179091556040519081527f41f386d449eec03c1c3b75bbba9c18df70aa19779ff47f68eab4b6a66fb399d49060200161065f565b610738610d8a565b60096107448282611720565b507f6741b2fc379fad678116fe3d4d4b9a1a184ab53ba36b86ad0fa66340b1ab41ad8160405161065f919061134e565b600061046882610c4b565b60006001600160a01b0382166107ab576040516322718ad960e21b815260006004820152602401610574565b506001600160a01b031660009081526003602052604090205490565b6107cf610d8a565b6107d96000610dcd565b565b6107e3610d8a565b600a8190556040518181527f90004c04698bc3322499a575ed3752dd4abf33e0a7294c06a787a0fe01bea9419060200161065f565b60606001805461047d90611677565b610534338383610e1f565b61083d84848461054e565b6105d83385858585610ebe565b6060600061085783610774565b6001600160a01b0316036108a45760405162461bcd60e51b8152602060048201526014602482015273151bdad95b88191bd95cc81b9bdd08195e1a5cdd60621b6044820152606401610574565b610468610fe9565b600980546108b990611677565b80601f01602080910402602001604051908101604052809291908181526020018280546108e590611677565b80156109325780601f1061090757610100808354040283529160200191610932565b820191906000526020600020905b81548152906001019060200180831161091557829003601f168201915b505050505081565b6001600160a01b03918216600090815260056020908152604080832093909416825291909152205460ff1690565b600c5460ff166109b35760405162461bcd60e51b8152602060048201526016602482015275135a5b9d1a5b99c81a5cc81b9bdd08195b98589b195960521b6044820152606401610574565b600a546109f85760405162461bcd60e51b815260206004820152601360248201527213595c9adb19481c9bdbdd081b9bdd081cd95d606a1b6044820152606401610574565b6000838152600b602052604090205460ff1615610a4e5760405162461bcd60e51b8152602060048201526014602482015273115b585a5b08185b1c9958591e481b5a5b9d195960621b6044820152606401610574565b7f00000000000000000000000000000000000000000000000000000000000000006008541115610ab55760405162461bcd60e51b815260206004820152601260248201527113585e081cdd5c1c1b1e481c995858da195960721b6044820152606401610574565b6000839050610afb83838080602002602001604051908101604052809392919081815260200183836020028082843760009201919091525050600a549150849050610db7565b610b3e5760405162461bcd60e51b815260206004820152601460248201527324b73b30b634b21026b2b935b63290383937b7b360611b6044820152606401610574565b600880549081906000610b50836117e0565b9190505550610b5f3382610ff8565b6000858152600b602052604090819020805460ff1916600117905551819033907fc54325d42dcc3796f56fe92f0b96ca70d0588aa64a79ed13a845243de604cd3d90610bae9089815260200190565b60405180910390a35050505050565b610bc5610d8a565b6001600160a01b038116610bef57604051631e4fbdf760e01b815260006004820152602401610574565b610bf881610dcd565b50565b60006001600160e01b031982166380ac58cd60e01b1480610c2c57506001600160e01b03198216635b5e139f60e01b145b8061046857506301ffc9a760e01b6001600160e01b0319831614610468565b6000818152600260205260408120546001600160a01b03168061046857604051637e27328960e01b815260048101849052602401610574565b6106e28383836001611012565b6000828152600260205260408120546001600160a01b0390811690831615610cbe57610cbe818486611118565b6001600160a01b03811615610cfc57610cdb600085600080611012565b6001600160a01b038116600090815260036020526040902080546000190190555b6001600160a01b03851615610d2b576001600160a01b0385166000908152600360205260409020805460010190555b60008481526002602052604080822080546001600160a01b0319166001600160a01b0389811691821790925591518793918516917fddf252ad1be2c89b69c2b068fc378daa952ba7f163c4a11628f55a4df523b3ef91a4949350505050565b6007546001600160a01b031633146107d95760405163118cdaa760e01b8152336004820152602401610574565b600082610dc4858461117c565b14949350505050565b600780546001600160a01b038381166001600160a01b0319831681179093556040519116919082907f8be0079c531659141344cd1fd0a4f28419497f9722a3daafe3b4186f6b6457e090600090a35050565b6001600160a01b038216610e5157604051630b61174360e31b81526001600160a01b0383166004820152602401610574565b6001600160a01b03838116600081815260056020908152604080832094871680845294825291829020805460ff191686151590811790915591519182527f17307eab39ab6107e8899845ad3d59bd9653f200f220920489ca2b5937696c31910160405180910390a3505050565b6001600160a01b0383163b15610fe257604051630a85bd0160e11b81526001600160a01b0384169063150b7a0290610f009088908890879087906004016117f9565b6020604051808303816000875af1925050508015610f3b575060408051601f3d908101601f19168201909252610f3891810190611836565b60015b610fa4573d808015610f69576040519150601f19603f3d011682016040523d82523d6000602084013e610f6e565b606091505b508051600003610f9c57604051633250574960e11b81526001600160a01b0385166004820152602401610574565b805160208201fd5b6001600160e01b03198116630a85bd0160e11b14610fe057604051633250574960e11b81526001600160a01b0385166004820152602401610574565b505b5050505050565b60606009805461047d90611677565b6105348282604051806020016040528060008152506111c9565b808061102657506001600160a01b03821615155b156110e857600061103684610c4b565b90506001600160a01b038316158015906110625750826001600160a01b0316816001600160a01b031614155b80156110755750611073818461093a565b155b1561109e5760405163a9fbf51f60e01b81526001600160a01b0384166004820152602401610574565b81156110e65783856001600160a01b0316826001600160a01b03167f8c5be1e5ebec7d5bd14f71427d1e84f3dd0314c0f7b2291e5b200ac8c7c3b92560405160405180910390a45b505b5050600090815260046020526040902080546001600160a01b0319166001600160a01b0392909216919091179055565b6111238383836111e1565b6106e2576001600160a01b03831661115157604051637e27328960e01b815260048101829052602401610574565b60405163177e802f60e01b81526001600160a01b038316600482015260248101829052604401610574565b600081815b84518110156111c1576111ad828683815181106111a0576111a0611853565b6020026020010151611244565b9150806111b9816117e0565b915050611181565b509392505050565b6111d38383611270565b6106e2336000858585610ebe565b60006001600160a01b038316158015906106bd5750826001600160a01b0316846001600160a01b0316148061121b575061121b848461093a565b806106bd5750506000908152600460205260409020546001600160a01b03908116911614919050565b60008183106112605760008281526020849052604090206106c0565b5060009182526020526040902090565b6001600160a01b03821661129a57604051633250574960e11b815260006004820152602401610574565b60006112a883836000610c91565b90506001600160a01b038116156106e2576040516339e3563760e11b815260006004820152602401610574565b6001600160e01b031981168114610bf857600080fd5b6000602082840312156112fd57600080fd5b81356106c0816112d5565b6000815180845260005b8181101561132e57602081850181015186830182015201611312565b506000602082860101526020601f19601f83011685010191505092915050565b6020815260006106c06020830184611308565b60006020828403121561137357600080fd5b5035919050565b80356001600160a01b038116811461139157600080fd5b919050565b600080604083850312156113a957600080fd5b6113b28361137a565b946020939093013593505050565b6000806000606084860312156113d557600080fd5b6113de8461137a565b92506113ec6020850161137a565b9150604084013590509250925092565b60008060006040848603121561141157600080fd5b83359250602084013567ffffffffffffffff8082111561143057600080fd5b818601915086601f83011261144457600080fd5b81358181111561145357600080fd5b8760208260051b850101111561146857600080fd5b6020830194508093505050509250925092565b8035801515811461139157600080fd5b60006020828403121561149d57600080fd5b6106c08261147b565b634e487b7160e01b600052604160045260246000fd5b600067ffffffffffffffff808411156114d7576114d76114a6565b604051601f8501601f19908116603f011681019082821181831017156114ff576114ff6114a6565b8160405280935085815286868601111561151857600080fd5b858560208301376000602087830101525050509392505050565b60006020828403121561154457600080fd5b813567ffffffffffffffff81111561155b57600080fd5b8201601f8101841361156c57600080fd5b61157b848235602084016114bc565b949350505050565b60006020828403121561159557600080fd5b6106c08261137a565b600080604083850312156115b157600080fd5b6115ba8361137a565b91506115c86020840161147b565b90509250929050565b600080600080608085870312156115e757600080fd5b6115f08561137a565b93506115fe6020860161137a565b925060408501359150606085013567ffffffffffffffff81111561162157600080fd5b8501601f8101871361163257600080fd5b611641878235602084016114bc565b91505092959194509250565b6000806040838503121561166057600080fd5b6116698361137a565b91506115c86020840161137a565b600181811c9082168061168b57607f821691505b6020821081036116ab57634e487b7160e01b600052602260045260246000fd5b50919050565b634e487b7160e01b600052601160045260246000fd5b81810381811115610468576104686116b1565b601f8211156106e257600081815260208120601f850160051c810160208610156117015750805b601f850160051c820191505b81811015610fe05782815560010161170d565b815167ffffffffffffffff81111561173a5761173a6114a6565b61174e816117488454611677565b846116da565b602080601f831160018114611783576000841561176b5750858301515b600019600386901b1c1916600185901b178555610fe0565b600085815260208120601f198616915b828110156117b257888601518255948401946001909101908401611793565b50858210156117d05787850151600019600388901b60f8161c191681555b5050505050600190811b01905550565b6000600182016117f2576117f26116b1565b5060010190565b6001600160a01b038581168252841660208201526040810183905260806060820181905260009061182c90830184611308565b9695505050505050565b60006020828403121561184857600080fd5b81516106c0816112d5565b634e487b7160e01b600052603260045260246000fdfea2646970667358221220ba9e3b178fd1931e95d73a06c8f831623fe89c969bd0cf157d0295902977e92464736f6c63430008140033",
  "linkReferences": {},
  "deployedLinkReferences": {}
}