{
  "_format": "hh-sol-artifact-1",
  "contractName": "RWAHackathonNFT",
  "sourceName": "contracts/RWAHackathonNFT.sol",
  "abi": [
    {
      "inputs": [
        {
          "internalType": "string",
          "name": "name",
          "type": "string"
        },
        {
          "internalType": "string",
          "name": "symbol",
          "type": "string"
        },
        {
          "internalType": "uint256",
          "name": "_maxSupply",
          "type": "uint256"
        },
        {
          "internalType": "string",
          "name": "_baseTokenURI",
          "type": "string"
        }
      ],
      "stateMutability": "nonpayable",
      "type": "constructor"
    },
    {
      "inputs": [
        {
          "internalType": "address",
          "name": "sender",
          "type": "address"
        },
        {
          "internalType": "uint256",
          "name": "tokenId",
          "type": "uint256"
        },
        {
          "internalType": "address",
          "name": "owner",
          "type": "address"
        }
      ],
      "name": "ERC721IncorrectOwner",
      "type": "error"
    },
    {
      "inputs": [
        {
          "internalType": "address",
          "name": "operator",
          "type": "address"
        },
        {
          "internalType": "uint256",
          "name": "tokenId",
          "type": "uint256"
        }
      ],
      "name": "ERC721InsufficientApproval",
      "type": "error"
    },
    {
      "inputs": [
        {
          "internalType": "address",
          "name": "approver",
          "type": "address"
        }
      ],
      "name": "ERC721InvalidApprover",
      "type": "error"
    },
    {
      "inputs": [
        {
          "internalType": "address",
          "name": "operator",
          "type": "address"
        }
      ],
      "name": "ERC721InvalidOperator",
      "type": "error"
    },
    {
      "inputs": [
        {
          "internalType": "address",
          "name": "owner",
          "type": "address"
        }
      ],
      "name": "ERC721InvalidOwner",
      "type": "error"
    },
    {
      "inputs": [
        {
          "internalType": "address",
          "name": "receiver",
          "type": "address"
        }
      ],
      "name": "ERC721InvalidReceiver",
      "type": "error"
    },
    {
      "inputs": [
        {
          "internalType": "address",
          "name": "sender",
          "type": "address"
        }
      ],
      "name": "ERC721InvalidSender",
      "type": "error"
    },
    {
      "inputs": [
        {
          "internalType": "uint256",
          "name": "tokenId",
          "type": "uint256"
        }
      ],
      "name": "ERC721NonexistentToken",
      "type": "error"
    },
    {
      "inputs": [
        {
          "internalType": "address",
          "name": "owner",
          "type": "address"
        }
      ],
      "name": "OwnableInvalidOwner",
      "type": "error"
    },
    {
      "inputs": [
        {
          "internalType": "address",
          "name": "account",
          "type": "address"
        }
      ],
      "name": "OwnableUnauthorizedAccount",
      "type": "error"
    },
    {
      "anonymous": false,
      "inputs": [
        {
          "indexed": true,
          "internalType": "address",
          "name": "owner",
          "type": "address"
        },
        {
          "indexed": true,
          "internalType": "address",
          "name": "approved",
          "type": "address"
        },
        {
          "indexed": true,
          "internalType": "uint256",
          "name": "tokenId",
          "type": "uint256"
        }
      ],
      "name": "Approval",
      "type": "event"
    },
    {
      "anonymous": false,
      "inputs": [
        {
          "indexed": true,
          "internalType": "address",
          "name": "owner",
          "type": "address"
        },
        {
          "indexed": true,
          "internalType": "address",
          "name": "operator",
          "type": "address"
        },
        {
          "indexed": false,
          "internalType": "bool",
          "name": "approved",
          "type": "bool"
        }
      ],
      "name": "ApprovalForAll",
      "type": "event"
    },
    {
      "anonymous": false,
      "inputs": [
        {
          "indexed": false,
          "internalType": "string",
          "name": "newBaseURI",
          "type": "string"
        }
      ],
      "name": "BaseURIUpdated",
      "type": "event"
    },
    {
      "anonymous": false,
      "inputs": [
        {
          "indexed": false,
          "internalType": "uint256",
          "name": "_fromTokenId",
          "type": "uint256"
        },
        {
          "indexed": false,
          "internalType": "uint256",
          "name": "_toTokenId",
          "type": "uint256"
        }
      ],
      "name": "BatchMetadataUpdate",
      "type": "event"
    },
    {
      "anonymous": false,
      "inputs": [
        {
          "indexed": false,
          "internalType": "bytes32",
          "name": "newRoot",
          "type": "bytes32"
        }
      ],
      "name": "MerkleRootUpdated",
      "type": "event"
    },
    {
      "anonymous": false,
      "inputs": [
        {
          "indexed": false,
          "internalType": "uint256",
          "name": "_tokenId",
          "type": "uint256"
        }
      ],
      "name": "MetadataUpdate",
      "type": "event"
    },
    {
      "anonymous": false,
      "inputs": [
        {
          "indexed": false,
          "internalType": "bool",
          "name": "enabled",
          "type": "bool"
        }
      ],
      "name": "MintingStatusChanged",
      "type": "event"
    },
    {
      "anonymous": false,
      "inputs": [
        {
          "indexed": true,
          "internalType": "address",
          "name": "to",
          "type": "address"
        },
        {
          "indexed": true,
          "internalType": "uint256",
          "name": "tokenId",
          "type": "uint256"
        },
        {
          "indexed": false,
          "internalType": "bytes32",
          "name": "emailHash",
          "type": "bytes32"
        }
      ],
      "name": "NFTMinted",
      "type": "event"
    },
    {
      "anonymous": false,
      "inputs": [
        {
          "indexed": true,
          "internalType": "address",
          "name": "previousOwner",
          "type": "address"
        },
        {
          "indexed": true,
          "internalType": "address",
          "name": "newOwner",
          "type": "address"
        }
      ],
      "name": "OwnershipTransferred",
      "type": "event"
    },
    {
      "anonymous": false,
      "inputs": [
        {
          "indexed": true,
          "internalType": "address",
          "name": "from",
          "type": "address"
        },
        {
          "indexed": true,
          "internalType": "address",
          "name": "to",
          "type": "address"
        },
        {
          "indexed": true,
          "internalType": "uint256",
          "name": "tokenId",
          "type": "uint256"
        }
      ],
      "name": "Transfer",
      "type": "event"
    },
    {
      "inputs": [
        {
          "internalType": "address",
          "name": "to",
          "type": "address"
        },
        {
          "internalType": "uint256",
          "name": "tokenId",
          "type": "uint256"
        }
      ],
      "name": "approve",
      "outputs": [],
      "stateMutability": "nonpayable",
      "type": "function"
    },
    {
      "inputs": [
        {
          "internalType": "address",
          "name": "owner",
          "type": "address"
        }
      ],
      "name": "balanceOf",
      "outputs": [
        {
          "internalType": "uint256",
          "name": "",
          "type": "uint256"
        }
      ],
      "stateMutability": "view",
      "type": "function"
    },
    {
      "inputs": [],
      "name": "baseTokenURI",
      "outputs": [
        {
          "internalType": "string",
          "name": "",
          "type": "string"
        }
      ],
      "stateMutability": "view",
      "type": "function"
    },
    {
      "inputs": [
        {
          "internalType": "uint256",
          "name": "tokenId",
          "type": "uint256"
        }
      ],
      "name": "getApproved",
      "outputs": [
        {
          "internalType": "address",
          "name": "",
          "type": "address"
        }
      ],
      "stateMutability": "view",
      "type": "function"
    },
    {
      "inputs": [],
      "name": "getNextTokenId",
      "outputs": [
        {
          "internalType": "uint256",
          "name": "",
          "type": "uint256"
        }
      ],
      "stateMutability": "view",
      "type": "function"
    },
    {
      "inputs": [
        {
          "internalType": "bytes32",
          "name": "emailHash",
          "type": "bytes32"
        }
      ],
      "name": "hasEmailMinted",
      "outputs": [
        {
          "internalType": "bool",
          "name": "",
          "type": "bool"
        }
      ],
      "stateMutability": "view",
      "type": "function"
    },
    {
      "inputs": [
        {
          "internalType": "bytes32",
          "name": "",
          "type": "bytes32"
        }
      ],
      "name": "hasMinted",
      "outputs": [
        {
          "internalType": "bool",
          "name": "",
          "type": "bool"
        }
      ],
      "stateMutability": "view",
      "type": "function"
    },
    {
      "inputs": [
        {
          "internalType": "address",
          "name": "owner",
          "type": "address"
        },
        {
          "internalType": "address",
          "name": "operator",
          "type": "address"
        }
      ],
      "name": "isApprovedForAll",
      "outputs": [
        {
          "internalType": "bool",
          "name": "",
          "type": "bool"
        }
      ],
      "stateMutability": "view",
      "type": "function"
    },
    {
      "inputs": [],
      "name": "maxSupply",
      "outputs": [
        {
          "internalType": "uint256",
          "name": "",
          "type": "uint256"
        }
      ],
      "stateMutability": "view",
      "type": "function"
    },
    {
      "inputs": [],
      "name": "merkleRoot",
      "outputs": [
        {
          "internalType": "bytes32",
          "name": "",
          "type": "bytes32"
        }
      ],
      "stateMutability": "view",
      "type": "function"
    },
    {
      "inputs": [
        {
          "internalType": "bytes32",
          "name": "emailHash",
          "type": "bytes32"
        },
        {
          "internalType": "bytes32[]",
          "name": "merkleProof",
          "type": "bytes32[]"
        }
      ],
      "name": "mint",
      "outputs": [],
      "stateMutability": "nonpayable",
      "type": "function"
    },
    {
      "inputs": [],
      "name": "mintingEnabled",
      "outputs": [
        {
          "internalType": "bool",
          "name": "",
          "type": "bool"
        }
      ],
      "stateMutability": "view",
      "type": "function"
    },
    {
      "inputs": [],
      "name": "name",
      "outputs": [
        {
          "internalType": "string",
          "name": "",
          "type": "string"
        }
      ],
      "stateMutability": "view",
      "type": "function"
    },
    {
      "inputs": [],
      "name": "owner",
      "outputs": [
        {
          "internalType": "address",
          "name": "",
          "type": "address"
        }
      ],
      "stateMutability": "view",
      "type": "function"
    },
    {
      "inputs": [
        {
          "internalType": "uint256",
          "name": "tokenId",
          "type": "uint256"
        }
      ],
      "name": "ownerOf",
      "outputs": [
        {
          "internalType": "address",
          "name": "",
          "type": "address"
        }
      ],
      "stateMutability": "view",
      "type": "function"
    },
    {
      "inputs": [],
      "name": "renounceOwnership",
      "outputs": [],
      "stateMutability": "nonpayable",
      "type": "function"
    },
    {
      "inputs": [
        {
          "internalType": "address",
          "name": "from",
          "type": "address"
        },
        {
          "internalType": "address",
          "name": "to",
          "type": "address"
        },
        {
          "internalType": "uint256",
          "name": "tokenId",
          "type": "uint256"
        }
      ],
      "name": "safeTransferFrom",
      "outputs": [],
      "stateMutability": "nonpayable",
      "type": "function"
    },
    {
      "inputs": [
        {
          "internalType": "address",
          "name": "from",
          "type": "address"
        },
        {
          "internalType": "address",
          "name": "to",
          "type": "address"
        },
        {
          "internalType": "uint256",
          "name": "tokenId",
          "type": "uint256"
        },
        {
          "internalType": "bytes",
          "name": "data",
          "type": "bytes"
        }
      ],
      "name": "safeTransferFrom",
      "outputs": [],
      "stateMutability": "nonpayable",
      "type": "function"
    },
    {
      "inputs": [
        {
          "internalType": "address",
          "name": "operator",
          "type": "address"
        },
        {
          "internalType": "bool",
          "name": "approved",
          "type": "bool"
        }
      ],
      "name": "setApprovalForAll",
      "outputs": [],
      "stateMutability": "nonpayable",
      "type": "function"
    },
    {
      "inputs": [
        {
          "internalType": "string",
          "name": "newBaseURI",
          "type": "string"
        }
      ],
      "name": "setBaseURI",
      "outputs": [],
      "stateMutability": "nonpayable",
      "type": "function"
    },
    {
      "inputs": [
        {
          "internalType": "bytes32",
          "name": "_merkleRoot",
          "type": "bytes32"
        }
      ],
      "name": "setMerkleRoot",
      "outputs": [],
      "stateMutability": "nonpayable",
      "type": "function"
    },
    {
      "inputs": [
        {
          "internalType": "bool",
          "name": "enabled",
          "type": "bool"
        }
      ],
      "name": "setMintingEnabled",
      "outputs": [],
      "stateMutability": "nonpayable",
      "type": "function"
    },
    {
      "inputs": [
        {
          "internalType": "bytes32",
          "name": "_merkleRoot",
          "type": "bytes32"
        }
      ],
      "name": "setupAndEnableMinting",
      "outputs": [],
      "stateMutability": "nonpayable",
      "type": "function"
    },
    {
      "inputs": [
        {
          "internalType": "bytes4",
          "name": "interfaceId",
          "type": "bytes4"
        }
      ],
      "name": "supportsInterface",
      "outputs": [
        {
          "internalType": "bool",
          "name": "",
          "type": "bool"
        }
      ],
      "stateMutability": "view",
      "type": "function"
    },
    {
      "inputs": [],
      "name": "symbol",
      "outputs": [
        {
          "internalType": "string",
          "name": "",
          "type": "string"
        }
      ],
      "stateMutability": "view",
      "type": "function"
    },
    {
      "inputs": [
        {
          "internalType": "uint256",
          "name": "tokenId",
          "type": "uint256"
        }
      ],
      "name": "tokenURI",
      "outputs": [
        {
          "internalType": "string",
          "name": "",
          "type": "string"
        }
      ],
      "stateMutability": "view",
      "type": "function"
    },
    {
      "inputs": [],
      "name": "totalSupply",
      "outputs": [
        {
          "internalType": "uint256",
          "name": "",
          "type": "uint256"
        }
      ],
      "stateMutability": "view",
      "type": "function"
    },
    {
      "inputs": [
        {
          "internalType": "address",
          "name": "from",
          "type": "address"
        },
        {
          "internalType": "address",
          "name": "to",
          "type": "address"
        },
        {
          "internalType": "uint256",
          "name": "tokenId",
          "type": "uint256"
        }
      ],
      "name": "transferFrom",
      "outputs": [],
      "stateMutability": "nonpayable",
      "type": "function"
    },
    {
      "inputs": [
        {
          "internalType": "address",
          "name": "newOwner",
          "type": "address"
        }
      ],
      "name": "transferOwnership",
      "outputs": [],
      "stateMutability": "nonpayable",
      "type": "function"
    },
    {
      "inputs": [
        {
          "internalType": "bytes32",
          "name": "emailHash",
          "type": "bytes32"
        },
        {
          "internalType": "bytes32[]",
          "name": "merkleProof",
          "type": "bytes32[]"
        }
      ],
      "name": "verifyWhitelist",
      "outputs": [
        {
          "internalType": "bool",
          "name": "",
          "type": "bool"
        }
      ],
      "stateMutability": "view",
      "type": "function"
    }
  ],
  "bytecode": "0x60a06040523480156200001157600080fd5b5060405162001ecc38038062001ecc83398101604081905262000034916200022a565b338484600062000045838262000354565b50600162000054828262000354565b5050506001600160a01b0381166200008757604051631e4fbdf760e01b8152600060048201526024015b60405180910390fd5b620000928162000113565b5060008211620000ef5760405162461bcd60e51b815260206004820152602160248201527f4d617820737570706c79206d7573742062652067726561746572207468616e206044820152600360fc1b60648201526084016200007e565b6080829052600962000102828262000354565b505060016008555062000420915050565b600780546001600160a01b038381166001600160a01b0319831681179093556040519116919082907f8be0079c531659141344cd1fd0a4f28419497f9722a3daafe3b4186f6b6457e090600090a35050565b634e487b7160e01b600052604160045260246000fd5b600082601f8301126200018d57600080fd5b81516001600160401b0380821115620001aa57620001aa62000165565b604051601f8301601f19908116603f01168101908282118183101715620001d557620001d562000165565b81604052838152602092508683858801011115620001f257600080fd5b600091505b83821015620002165785820183015181830184015290820190620001f7565b600093810190920192909252949350505050565b600080600080608085870312156200024157600080fd5b84516001600160401b03808211156200025957600080fd5b62000267888389016200017b565b955060208701519150808211156200027e57600080fd5b6200028c888389016200017b565b9450604087015193506060870151915080821115620002aa57600080fd5b50620002b9878288016200017b565b91505092959194509250565b600181811c90821680620002da57607f821691505b602082108103620002fb57634e487b7160e01b600052602260045260246000fd5b50919050565b601f8211156200034f57600081815260208120601f850160051c810160208610156200032a5750805b601f850160051c820191505b818110156200034b5782815560010162000336565b5050505b505050565b81516001600160401b0381111562000370576200037062000165565b6200038881620003818454620002c5565b8462000301565b602080601f831160018114620003c05760008415620003a75750858301515b600019600386901b1c1916600185901b1785556200034b565b600085815260208120601f198616915b82811015620003f157888601518255948401946001909101908401620003d0565b5085821015620004105787850151600019600388901b60f8161c191681555b5050505050600190811b01905550565b608051611a8962000443600039600081816103e80152610a860152611a896000f3fe608060405234801561001057600080fd5b50600436106101da5760003560e01c80637cb6475911610104578063b88d4fde116100a2578063d5abeb0111610071578063d5abeb01146103e3578063e985e9c51461040a578063ea58f5a71461041d578063f2fde38b1461043057600080fd5b8063b88d4fde146103ad578063c87b56dd146103c0578063caa0f92a146103d3578063d547cfb7146103db57600080fd5b80638f058d53116100de5780638f058d531461036257806395d89b41146103855780639fd6db121461038d578063a22cb4651461039a57600080fd5b80637cb647591461031b5780637dbd77db1461032e5780638da5cb5b1461035157600080fd5b80632eb4a7ab1161017c57806355f804b31161014b57806355f804b3146102da5780636352211e146102ed57806370a0823114610300578063715018a61461031357600080fd5b80632eb4a7ab14610298578063329ea90d146102a157806342842e0e146102b45780634ea3871a146102c757600080fd5b8063095ea7b3116101b8578063095ea7b31461024757806318160ddd1461025c57806323b872dd146102725780632924a9ec1461028557600080fd5b806301ffc9a7146101df57806306fdde0314610207578063081812fc1461021c575b600080fd5b6101f26101ed36600461148c565b610443565b60405190151581526020015b60405180910390f35b61020f61046e565b6040516101fe91906114f9565b61022f61022a36600461150c565b610500565b6040516001600160a01b0390911681526020016101fe565b61025a610255366004611541565b610529565b005b610264610538565b6040519081526020016101fe565b61025a61028036600461156b565b61054e565b61025a61029336600461150c565b6105de565b610264600a5481565b6101f26102af3660046115a7565b61066a565b61025a6102c236600461156b565b6106c7565b61025a6102d5366004611636565b6106e7565b61025a6102e83660046116dd565b610730565b61022f6102fb36600461150c565b610774565b61026461030e36600461172e565b61077f565b61025a6107c7565b61025a61032936600461150c565b6107db565b6101f261033c36600461150c565b600b6020526000908152604090205460ff1681565b6007546001600160a01b031661022f565b6101f261037036600461150c565b6000908152600b602052604090205460ff1690565b61020f610818565b600c546101f29060ff1681565b61025a6103a8366004611749565b610827565b61025a6103bb36600461177c565b610832565b61020f6103ce36600461150c565b61084a565b600854610264565b61020f6108e2565b6102647f000000000000000000000000000000000000000000000000000000000000000081565b6101f26104183660046117f8565b610970565b61025a61042b3660046115a7565b61099e565b61025a61043e36600461172e565b610bf3565b60006001600160e01b03198216632483248360e11b1480610468575061046882610c31565b92915050565b60606000805461047d90611822565b80601f01602080910402602001604051908101604052809291908181526020018280546104a990611822565b80156104f65780601f106104cb576101008083540402835291602001916104f6565b820191906000526020600020905b8154815290600101906020018083116104d957829003601f168201915b5050505050905090565b600061050b82610c81565b506000828152600460205260409020546001600160a01b0316610468565b610534828233610cba565b5050565b600060016008546105499190611872565b905090565b6001600160a01b03821661057d57604051633250574960e11b8152600060048201526024015b60405180910390fd5b600061058a838333610cc7565b9050836001600160a01b0316816001600160a01b0316146105d8576040516364283d7b60e01b81526001600160a01b0380861660048301526024820184905282166044820152606401610574565b50505050565b6105e6610dc0565b600a819055600c805460ff191660011790556040517f90004c04698bc3322499a575ed3752dd4abf33e0a7294c06a787a0fe01bea9419061062a9083815260200190565b60405180910390a1604051600181527f41f386d449eec03c1c3b75bbba9c18df70aa19779ff47f68eab4b6a66fb399d4906020015b60405180910390a150565b600a5460009061067c575060006106c0565b6106bd83838080602002602001604051908101604052809392919081815260200183836020028082843760009201919091525050600a549150879050610ded565b90505b9392505050565b6106e283838360405180602001604052806000815250610832565b505050565b6106ef610dc0565b600c805460ff19168215159081179091556040519081527f41f386d449eec03c1c3b75bbba9c18df70aa19779ff47f68eab4b6a66fb399d49060200161065f565b610738610dc0565b600961074482826118cb565b507f6741b2fc379fad678116fe3d4d4b9a1a184ab53ba36b86ad0fa66340b1ab41ad8160405161065f91906114f9565b600061046882610c81565b60006001600160a01b0382166107ab576040516322718ad960e21b815260006004820152602401610574565b506001600160a01b031660009081526003602052604090205490565b6107cf610dc0565b6107d96000610e03565b565b6107e3610dc0565b600a8190556040518181527f90004c04698bc3322499a575ed3752dd4abf33e0a7294c06a787a0fe01bea9419060200161065f565b60606001805461047d90611822565b610534338383610e55565b61083d84848461054e565b6105d83385858585610ef4565b6060600061085783610774565b6001600160a01b0316036108a45760405162461bcd60e51b8152602060048201526014602482015273151bdad95b88191bd95cc81b9bdd08195e1a5cdd60621b6044820152606401610574565b60006108ae61101f565b9050806108ba8461102e565b6040516020016108cb92919061198b565b604051602081830303815290604052915050919050565b600980546108ef90611822565b80601f016020809104026020016040519081016040528092919081815260200182805461091b90611822565b80156109685780601f1061093d57610100808354040283529160200191610968565b820191906000526020600020905b81548152906001019060200180831161094b57829003601f168201915b505050505081565b6001600160a01b03918216600090815260056020908152604080832093909416825291909152205460ff1690565b600c5460ff166109e95760405162461bcd60e51b8152602060048201526016602482015275135a5b9d1a5b99c81a5cc81b9bdd08195b98589b195960521b6044820152606401610574565b600a54610a2e5760405162461bcd60e51b815260206004820152601360248201527213595c9adb19481c9bdbdd081b9bdd081cd95d606a1b6044820152606401610574565b6000838152600b602052604090205460ff1615610a845760405162461bcd60e51b8152602060048201526014602482015273115b585a5b08185b1c9958591e481b5a5b9d195960621b6044820152606401610574565b7f00000000000000000000000000000000000000000000000000000000000000006008541115610aeb5760405162461bcd60e51b815260206004820152601260248201527113585e081cdd5c1c1b1e481c995858da195960721b6044820152606401610574565b6000839050610b3183838080602002602001604051908101604052809392919081815260200183836020028082843760009201919091525050600a549150849050610ded565b610b745760405162461bcd60e51b815260206004820152601460248201527324b73b30b634b21026b2b935b63290383937b7b360611b6044820152606401610574565b600880549081906000610b86836119ca565b9190505550610b9533826110c1565b6000858152600b602052604090819020805460ff1916600117905551819033907fc54325d42dcc3796f56fe92f0b96ca70d0588aa64a79ed13a845243de604cd3d90610be49089815260200190565b60405180910390a35050505050565b610bfb610dc0565b6001600160a01b038116610c2557604051631e4fbdf760e01b815260006004820152602401610574565b610c2e81610e03565b50565b60006001600160e01b031982166380ac58cd60e01b1480610c6257506001600160e01b03198216635b5e139f60e01b145b8061046857506301ffc9a760e01b6001600160e01b0319831614610468565b6000818152600260205260408120546001600160a01b03168061046857604051637e27328960e01b815260048101849052602401610574565b6106e283838360016110db565b6000828152600260205260408120546001600160a01b0390811690831615610cf457610cf48184866111e1565b6001600160a01b03811615610d3257610d116000856000806110db565b6001600160a01b038116600090815260036020526040902080546000190190555b6001600160a01b03851615610d61576001600160a01b0385166000908152600360205260409020805460010190555b60008481526002602052604080822080546001600160a01b0319166001600160a01b0389811691821790925591518793918516917fddf252ad1be2c89b69c2b068fc378daa952ba7f163c4a11628f55a4df523b3ef91a4949350505050565b6007546001600160a01b031633146107d95760405163118cdaa760e01b8152336004820152602401610574565b600082610dfa8584611245565b14949350505050565b600780546001600160a01b038381166001600160a01b0319831681179093556040519116919082907f8be0079c531659141344cd1fd0a4f28419497f9722a3daafe3b4186f6b6457e090600090a35050565b6001600160a01b038216610e8757604051630b61174360e31b81526001600160a01b0383166004820152602401610574565b6001600160a01b03838116600081815260056020908152604080832094871680845294825291829020805460ff191686151590811790915591519182527f17307eab39ab6107e8899845ad3d59bd9653f200f220920489ca2b5937696c31910160405180910390a3505050565b6001600160a01b0383163b1561101857604051630a85bd0160e11b81526001600160a01b0384169063150b7a0290610f369088908890879087906004016119e3565b6020604051808303816000875af1925050508015610f71575060408051601f3d908101601f19168201909252610f6e91810190611a20565b60015b610fda573d808015610f9f576040519150601f19603f3d011682016040523d82523d6000602084013e610fa4565b606091505b508051600003610fd257604051633250574960e11b81526001600160a01b0385166004820152602401610574565b805160208201fd5b6001600160e01b03198116630a85bd0160e11b1461101657604051633250574960e11b81526001600160a01b0385166004820152602401610574565b505b5050505050565b60606009805461047d90611822565b6060600061103b83611292565b600101905060008167ffffffffffffffff81111561105b5761105b611651565b6040519080825280601f01601f191660200182016040528015611085576020820181803683370190505b5090508181016020015b600019016f181899199a1a9b1b9c1cb0b131b232b360811b600a86061a8153600a850494508461108f57509392505050565b61053482826040518060200160405280600081525061136a565b80806110ef57506001600160a01b03821615155b156111b15760006110ff84610c81565b90506001600160a01b0383161580159061112b5750826001600160a01b0316816001600160a01b031614155b801561113e575061113c8184610970565b155b156111675760405163a9fbf51f60e01b81526001600160a01b0384166004820152602401610574565b81156111af5783856001600160a01b0316826001600160a01b03167f8c5be1e5ebec7d5bd14f71427d1e84f3dd0314c0f7b2291e5b200ac8c7c3b92560405160405180910390a45b505b5050600090815260046020526040902080546001600160a01b0319166001600160a01b0392909216919091179055565b6111ec838383611382565b6106e2576001600160a01b03831661121a57604051637e27328960e01b815260048101829052602401610574565b60405163177e802f60e01b81526001600160a01b038316600482015260248101829052604401610574565b600081815b845181101561128a576112768286838151811061126957611269611a3d565b60200260200101516113e5565b915080611282816119ca565b91505061124a565b509392505050565b60008072184f03e93ff9f4daa797ed6e38ed64bf6a1f0160401b83106112d15772184f03e93ff9f4daa797ed6e38ed64bf6a1f0160401b830492506040015b6d04ee2d6d415b85acef810000000083106112fd576d04ee2d6d415b85acef8100000000830492506020015b662386f26fc10000831061131b57662386f26fc10000830492506010015b6305f5e1008310611333576305f5e100830492506008015b612710831061134757612710830492506004015b60648310611359576064830492506002015b600a83106104685760010192915050565b6113748383611411565b6106e2336000858585610ef4565b60006001600160a01b038316158015906106bd5750826001600160a01b0316846001600160a01b031614806113bc57506113bc8484610970565b806106bd5750506000908152600460205260409020546001600160a01b03908116911614919050565b60008183106114015760008281526020849052604090206106c0565b5060009182526020526040902090565b6001600160a01b03821661143b57604051633250574960e11b815260006004820152602401610574565b600061144983836000610cc7565b90506001600160a01b038116156106e2576040516339e3563760e11b815260006004820152602401610574565b6001600160e01b031981168114610c2e57600080fd5b60006020828403121561149e57600080fd5b81356106c081611476565b60005b838110156114c45781810151838201526020016114ac565b50506000910152565b600081518084526114e58160208601602086016114a9565b601f01601f19169290920160200192915050565b6020815260006106c060208301846114cd565b60006020828403121561151e57600080fd5b5035919050565b80356001600160a01b038116811461153c57600080fd5b919050565b6000806040838503121561155457600080fd5b61155d83611525565b946020939093013593505050565b60008060006060848603121561158057600080fd5b61158984611525565b925061159760208501611525565b9150604084013590509250925092565b6000806000604084860312156115bc57600080fd5b83359250602084013567ffffffffffffffff808211156115db57600080fd5b818601915086601f8301126115ef57600080fd5b8135818111156115fe57600080fd5b8760208260051b850101111561161357600080fd5b6020830194508093505050509250925092565b8035801515811461153c57600080fd5b60006020828403121561164857600080fd5b6106c082611626565b634e487b7160e01b600052604160045260246000fd5b600067ffffffffffffffff8084111561168257611682611651565b604051601f8501601f19908116603f011681019082821181831017156116aa576116aa611651565b816040528093508581528686860111156116c357600080fd5b858560208301376000602087830101525050509392505050565b6000602082840312156116ef57600080fd5b813567ffffffffffffffff81111561170657600080fd5b8201601f8101841361171757600080fd5b61172684823560208401611667565b949350505050565b60006020828403121561174057600080fd5b6106c082611525565b6000806040838503121561175c57600080fd5b61176583611525565b915061177360208401611626565b90509250929050565b6000806000806080858703121561179257600080fd5b61179b85611525565b93506117a960208601611525565b925060408501359150606085013567ffffffffffffffff8111156117cc57600080fd5b8501601f810187136117dd57600080fd5b6117ec87823560208401611667565b91505092959194509250565b6000806040838503121561180b57600080fd5b61181483611525565b915061177360208401611525565b600181811c9082168061183657607f821691505b60208210810361185657634e487b7160e01b600052602260045260246000fd5b50919050565b634e487b7160e01b600052601160045260246000fd5b818103818111156104685761046861185c565b601f8211156106e257600081815260208120601f850160051c810160208610156118ac5750805b601f850160051c820191505b81811015611016578281556001016118b8565b815167ffffffffffffffff8111156118e5576118e5611651565b6118f9816118f38454611822565b84611885565b602080601f83116001811461192e57600084156119165750858301515b600019600386901b1c1916600185901b178555611016565b600085815260208120601f198616915b8281101561195d5788860151825594840194600190910190840161193e565b508582101561197b5787850151600019600388901b60f8161c191681555b5050505050600190811b01905550565b6000835161199d8184602088016114a9565b8351908301906119b18183602088016114a9565b64173539b7b760d91b9101908152600501949350505050565b6000600182016119dc576119dc61185c565b5060010190565b6001600160a01b0385811682528416602082015260408101839052608060608201819052600090611a16908301846114cd565b9695505050505050565b600060208284031215611a3257600080fd5b81516106c081611476565b634e487b7160e01b600052603260045260246000fdfea26469706673582212208ec6f856ba1b996cf980362c8f4bd54a6ffb058ea737cd105fc802605ab9641464736f6c63430008140033",
  "linkReferences": {},
  "deployedLinkReferences": {}
}