{
  "_format": "hh-sol-artifact-1",
  "contractName": "HackathonNFT",
  "sourceName": "contracts/NFTMinter.sol",
  "abi": [
    {
      "inputs": [
        {
          "internalType": "string",
          "name": "name",
          "type": "string"
        },
        {
          "internalType": "string",
          "name": "symbol",
          "type": "string"
        },
        {
          "internalType": "uint256",
          "name": "_maxSupply",
          "type": "uint256"
        }
      ],
      "stateMutability": "nonpayable",
      "type": "constructor"
    },
    {
      "inputs": [
        {
          "internalType": "address",
          "name": "sender",
          "type": "address"
        },
        {
          "internalType": "uint256",
          "name": "tokenId",
          "type": "uint256"
        },
        {
          "internalType": "address",
          "name": "owner",
          "type": "address"
        }
      ],
      "name": "ERC721IncorrectOwner",
      "type": "error"
    },
    {
      "inputs": [
        {
          "internalType": "address",
          "name": "operator",
          "type": "address"
        },
        {
          "internalType": "uint256",
          "name": "tokenId",
          "type": "uint256"
        }
      ],
      "name": "ERC721InsufficientApproval",
      "type": "error"
    },
    {
      "inputs": [
        {
          "internalType": "address",
          "name": "approver",
          "type": "address"
        }
      ],
      "name": "ERC721InvalidApprover",
      "type": "error"
    },
    {
      "inputs": [
        {
          "internalType": "address",
          "name": "operator",
          "type": "address"
        }
      ],
      "name": "ERC721InvalidOperator",
      "type": "error"
    },
    {
      "inputs": [
        {
          "internalType": "address",
          "name": "owner",
          "type": "address"
        }
      ],
      "name": "ERC721InvalidOwner",
      "type": "error"
    },
    {
      "inputs": [
        {
          "internalType": "address",
          "name": "receiver",
          "type": "address"
        }
      ],
      "name": "ERC721InvalidReceiver",
      "type": "error"
    },
    {
      "inputs": [
        {
          "internalType": "address",
          "name": "sender",
          "type": "address"
        }
      ],
      "name": "ERC721InvalidSender",
      "type": "error"
    },
    {
      "inputs": [
        {
          "internalType": "uint256",
          "name": "tokenId",
          "type": "uint256"
        }
      ],
      "name": "ERC721NonexistentToken",
      "type": "error"
    },
    {
      "inputs": [
        {
          "internalType": "address",
          "name": "owner",
          "type": "address"
        }
      ],
      "name": "OwnableInvalidOwner",
      "type": "error"
    },
    {
      "inputs": [
        {
          "internalType": "address",
          "name": "account",
          "type": "address"
        }
      ],
      "name": "OwnableUnauthorizedAccount",
      "type": "error"
    },
    {
      "anonymous": false,
      "inputs": [
        {
          "indexed": true,
          "internalType": "address",
          "name": "owner",
          "type": "address"
        },
        {
          "indexed": true,
          "internalType": "address",
          "name": "approved",
          "type": "address"
        },
        {
          "indexed": true,
          "internalType": "uint256",
          "name": "tokenId",
          "type": "uint256"
        }
      ],
      "name": "Approval",
      "type": "event"
    },
    {
      "anonymous": false,
      "inputs": [
        {
          "indexed": true,
          "internalType": "address",
          "name": "owner",
          "type": "address"
        },
        {
          "indexed": true,
          "internalType": "address",
          "name": "operator",
          "type": "address"
        },
        {
          "indexed": false,
          "internalType": "bool",
          "name": "approved",
          "type": "bool"
        }
      ],
      "name": "ApprovalForAll",
      "type": "event"
    },
    {
      "anonymous": false,
      "inputs": [
        {
          "indexed": false,
          "internalType": "uint256",
          "name": "_fromTokenId",
          "type": "uint256"
        },
        {
          "indexed": false,
          "internalType": "uint256",
          "name": "_toTokenId",
          "type": "uint256"
        }
      ],
      "name": "BatchMetadataUpdate",
      "type": "event"
    },
    {
      "anonymous": false,
      "inputs": [
        {
          "indexed": false,
          "internalType": "uint256",
          "name": "_tokenId",
          "type": "uint256"
        }
      ],
      "name": "MetadataUpdate",
      "type": "event"
    },
    {
      "anonymous": false,
      "inputs": [
        {
          "indexed": true,
          "internalType": "address",
          "name": "minter",
          "type": "address"
        },
        {
          "indexed": false,
          "internalType": "uint256",
          "name": "tokenId",
          "type": "uint256"
        },
        {
          "indexed": false,
          "internalType": "string",
          "name": "tokenURI",
          "type": "string"
        }
      ],
      "name": "NFTMinted",
      "type": "event"
    },
    {
      "anonymous": false,
      "inputs": [
        {
          "indexed": true,
          "internalType": "address",
          "name": "previousOwner",
          "type": "address"
        },
        {
          "indexed": true,
          "internalType": "address",
          "name": "newOwner",
          "type": "address"
        }
      ],
      "name": "OwnershipTransferred",
      "type": "event"
    },
    {
      "anonymous": false,
      "inputs": [
        {
          "indexed": true,
          "internalType": "address",
          "name": "from",
          "type": "address"
        },
        {
          "indexed": true,
          "internalType": "address",
          "name": "to",
          "type": "address"
        },
        {
          "indexed": true,
          "internalType": "uint256",
          "name": "tokenId",
          "type": "uint256"
        }
      ],
      "name": "Transfer",
      "type": "event"
    },
    {
      "anonymous": false,
      "inputs": [
        {
          "indexed": true,
          "internalType": "address",
          "name": "account",
          "type": "address"
        },
        {
          "indexed": false,
          "internalType": "bool",
          "name": "status",
          "type": "bool"
        }
      ],
      "name": "WhitelistUpdated",
      "type": "event"
    },
    {
      "inputs": [
        {
          "internalType": "address[]",
          "name": "addresses",
          "type": "address[]"
        }
      ],
      "name": "addToWhitelist",
      "outputs": [],
      "stateMutability": "nonpayable",
      "type": "function"
    },
    {
      "inputs": [
        {
          "internalType": "address",
          "name": "to",
          "type": "address"
        },
        {
          "internalType": "uint256",
          "name": "tokenId",
          "type": "uint256"
        }
      ],
      "name": "approve",
      "outputs": [],
      "stateMutability": "nonpayable",
      "type": "function"
    },
    {
      "inputs": [
        {
          "internalType": "address",
          "name": "owner",
          "type": "address"
        }
      ],
      "name": "balanceOf",
      "outputs": [
        {
          "internalType": "uint256",
          "name": "",
          "type": "uint256"
        }
      ],
      "stateMutability": "view",
      "type": "function"
    },
    {
      "inputs": [
        {
          "internalType": "address",
          "name": "account",
          "type": "address"
        }
      ],
      "name": "canMint",
      "outputs": [
        {
          "internalType": "bool",
          "name": "",
          "type": "bool"
        }
      ],
      "stateMutability": "view",
      "type": "function"
    },
    {
      "inputs": [
        {
          "internalType": "uint256",
          "name": "tokenId",
          "type": "uint256"
        }
      ],
      "name": "getApproved",
      "outputs": [
        {
          "internalType": "address",
          "name": "",
          "type": "address"
        }
      ],
      "stateMutability": "view",
      "type": "function"
    },
    {
      "inputs": [
        {
          "internalType": "address",
          "name": "",
          "type": "address"
        }
      ],
      "name": "hasMinted",
      "outputs": [
        {
          "internalType": "bool",
          "name": "",
          "type": "bool"
        }
      ],
      "stateMutability": "view",
      "type": "function"
    },
    {
      "inputs": [
        {
          "internalType": "address",
          "name": "owner",
          "type": "address"
        },
        {
          "internalType": "address",
          "name": "operator",
          "type": "address"
        }
      ],
      "name": "isApprovedForAll",
      "outputs": [
        {
          "internalType": "bool",
          "name": "",
          "type": "bool"
        }
      ],
      "stateMutability": "view",
      "type": "function"
    },
    {
      "inputs": [],
      "name": "maxSupply",
      "outputs": [
        {
          "internalType": "uint256",
          "name": "",
          "type": "uint256"
        }
      ],
      "stateMutability": "view",
      "type": "function"
    },
    {
      "inputs": [
        {
          "internalType": "string",
          "name": "tokenURI",
          "type": "string"
        }
      ],
      "name": "mint",
      "outputs": [],
      "stateMutability": "nonpayable",
      "type": "function"
    },
    {
      "inputs": [],
      "name": "name",
      "outputs": [
        {
          "internalType": "string",
          "name": "",
          "type": "string"
        }
      ],
      "stateMutability": "view",
      "type": "function"
    },
    {
      "inputs": [],
      "name": "owner",
      "outputs": [
        {
          "internalType": "address",
          "name": "",
          "type": "address"
        }
      ],
      "stateMutability": "view",
      "type": "function"
    },
    {
      "inputs": [
        {
          "internalType": "uint256",
          "name": "tokenId",
          "type": "uint256"
        }
      ],
      "name": "ownerOf",
      "outputs": [
        {
          "internalType": "address",
          "name": "",
          "type": "address"
        }
      ],
      "stateMutability": "view",
      "type": "function"
    },
    {
      "inputs": [
        {
          "internalType": "address[]",
          "name": "addresses",
          "type": "address[]"
        }
      ],
      "name": "removeFromWhitelist",
      "outputs": [],
      "stateMutability": "nonpayable",
      "type": "function"
    },
    {
      "inputs": [],
      "name": "renounceOwnership",
      "outputs": [],
      "stateMutability": "nonpayable",
      "type": "function"
    },
    {
      "inputs": [
        {
          "internalType": "address",
          "name": "from",
          "type": "address"
        },
        {
          "internalType": "address",
          "name": "to",
          "type": "address"
        },
        {
          "internalType": "uint256",
          "name": "tokenId",
          "type": "uint256"
        }
      ],
      "name": "safeTransferFrom",
      "outputs": [],
      "stateMutability": "nonpayable",
      "type": "function"
    },
    {
      "inputs": [
        {
          "internalType": "address",
          "name": "from",
          "type": "address"
        },
        {
          "internalType": "address",
          "name": "to",
          "type": "address"
        },
        {
          "internalType": "uint256",
          "name": "tokenId",
          "type": "uint256"
        },
        {
          "internalType": "bytes",
          "name": "data",
          "type": "bytes"
        }
      ],
      "name": "safeTransferFrom",
      "outputs": [],
      "stateMutability": "nonpayable",
      "type": "function"
    },
    {
      "inputs": [
        {
          "internalType": "address",
          "name": "operator",
          "type": "address"
        },
        {
          "internalType": "bool",
          "name": "approved",
          "type": "bool"
        }
      ],
      "name": "setApprovalForAll",
      "outputs": [],
      "stateMutability": "nonpayable",
      "type": "function"
    },
    {
      "inputs": [
        {
          "internalType": "bytes4",
          "name": "interfaceId",
          "type": "bytes4"
        }
      ],
      "name": "supportsInterface",
      "outputs": [
        {
          "internalType": "bool",
          "name": "",
          "type": "bool"
        }
      ],
      "stateMutability": "view",
      "type": "function"
    },
    {
      "inputs": [],
      "name": "symbol",
      "outputs": [
        {
          "internalType": "string",
          "name": "",
          "type": "string"
        }
      ],
      "stateMutability": "view",
      "type": "function"
    },
    {
      "inputs": [
        {
          "internalType": "uint256",
          "name": "tokenId",
          "type": "uint256"
        }
      ],
      "name": "tokenURI",
      "outputs": [
        {
          "internalType": "string",
          "name": "",
          "type": "string"
        }
      ],
      "stateMutability": "view",
      "type": "function"
    },
    {
      "inputs": [
        {
          "internalType": "address",
          "name": "from",
          "type": "address"
        },
        {
          "internalType": "address",
          "name": "to",
          "type": "address"
        },
        {
          "internalType": "uint256",
          "name": "tokenId",
          "type": "uint256"
        }
      ],
      "name": "transferFrom",
      "outputs": [],
      "stateMutability": "nonpayable",
      "type": "function"
    },
    {
      "inputs": [
        {
          "internalType": "address",
          "name": "newOwner",
          "type": "address"
        }
      ],
      "name": "transferOwnership",
      "outputs": [],
      "stateMutability": "nonpayable",
      "type": "function"
    },
    {
      "inputs": [
        {
          "internalType": "address",
          "name": "",
          "type": "address"
        }
      ],
      "name": "whitelist",
      "outputs": [
        {
          "internalType": "bool",
          "name": "",
          "type": "bool"
        }
      ],
      "stateMutability": "view",
      "type": "function"
    }
  ],
  "bytecode": "0x60806040523480156200001157600080fd5b5060405162001c7e38038062001c7e8339810160408190526200003491620001b9565b3383836000620000458382620002bb565b506001620000548282620002bb565b5050506001600160a01b0381166200008657604051631e4fbdf760e01b81526000600482015260240160405180910390fd5b6200009181620000a2565b506009555050600160085562000387565b600780546001600160a01b038381166001600160a01b0319831681179093556040519116919082907f8be0079c531659141344cd1fd0a4f28419497f9722a3daafe3b4186f6b6457e090600090a35050565b634e487b7160e01b600052604160045260246000fd5b600082601f8301126200011c57600080fd5b81516001600160401b0380821115620001395762000139620000f4565b604051601f8301601f19908116603f01168101908282118183101715620001645762000164620000f4565b816040528381526020925086838588010111156200018157600080fd5b600091505b83821015620001a5578582018301518183018401529082019062000186565b600093810190920192909252949350505050565b600080600060608486031215620001cf57600080fd5b83516001600160401b0380821115620001e757600080fd5b620001f5878388016200010a565b945060208601519150808211156200020c57600080fd5b506200021b868287016200010a565b925050604084015190509250925092565b600181811c908216806200024157607f821691505b6020821081036200026257634e487b7160e01b600052602260045260246000fd5b50919050565b601f821115620002b657600081815260208120601f850160051c81016020861015620002915750805b601f850160051c820191505b81811015620002b2578281556001016200029d565b5050505b505050565b81516001600160401b03811115620002d757620002d7620000f4565b620002ef81620002e884546200022c565b8462000268565b602080601f8311600181146200032757600084156200030e5750858301515b600019600386901b1c1916600185901b178555620002b2565b600085815260208120601f198616915b82811015620003585788860151825594840194600190910190840162000337565b5085821015620003775787850151600019600388901b60f8161c191681555b5050505050600190811b01905550565b6118e780620003976000396000f3fe608060405234801561001057600080fd5b506004361061014d5760003560e01c80637f649783116100c3578063c2ba47441161007c578063c2ba4744146102dc578063c87b56dd146102ef578063d5abeb0114610302578063d85d3d271461030b578063e985e9c51461031e578063f2fde38b1461033157600080fd5b80637f649783146102675780638da5cb5b1461027a57806395d89b411461028b5780639b19251a14610293578063a22cb465146102b6578063b88d4fde146102c957600080fd5b806338e21cce1161011557806338e21cce146101e257806342842e0e14610205578063548db174146102185780636352211e1461022b57806370a082311461023e578063715018a61461025f57600080fd5b806301ffc9a71461015257806306fdde031461017a578063081812fc1461018f578063095ea7b3146101ba57806323b872dd146101cf575b600080fd5b610165610160366004611327565b610344565b60405190151581526020015b60405180910390f35b610182610355565b6040516101719190611394565b6101a261019d3660046113a7565b6103e7565b6040516001600160a01b039091168152602001610171565b6101cd6101c83660046113dc565b610410565b005b6101cd6101dd366004611406565b61041f565b6101656101f0366004611442565b600b6020526000908152604090205460ff1681565b6101cd610213366004611406565b6104af565b6101cd61022636600461145d565b6104cf565b6101a26102393660046113a7565b6105b5565b61025161024c366004611442565b6105c0565b604051908152602001610171565b6101cd610608565b6101cd61027536600461145d565b61061c565b6007546001600160a01b03166101a2565b610182610702565b6101656102a1366004611442565b600a6020526000908152604090205460ff1681565b6101cd6102c43660046114d2565b610711565b6101cd6102d736600461159a565b61071c565b6101656102ea366004611442565b610734565b6101826102fd3660046113a7565b61078a565b61025160095481565b6101cd610319366004611616565b610795565b61016561032c36600461165f565b610903565b6101cd61033f366004611442565b610931565b600061034f8261096f565b92915050565b60606000805461036490611692565b80601f016020809104026020016040519081016040528092919081815260200182805461039090611692565b80156103dd5780601f106103b2576101008083540402835291602001916103dd565b820191906000526020600020905b8154815290600101906020018083116103c057829003601f168201915b5050505050905090565b60006103f282610994565b506000828152600460205260409020546001600160a01b031661034f565b61041b8282336109cd565b5050565b6001600160a01b03821661044e57604051633250574960e11b8152600060048201526024015b60405180910390fd5b600061045b8383336109da565b9050836001600160a01b0316816001600160a01b0316146104a9576040516364283d7b60e01b81526001600160a01b0380861660048301526024820184905282166044820152606401610445565b50505050565b6104ca8383836040518060200160405280600081525061071c565b505050565b6104d7610ad3565b60005b818110156104ca576000600a60008585858181106104fa576104fa6116cc565b905060200201602081019061050f9190611442565b6001600160a01b031681526020810191909152604001600020805460ff1916911515919091179055828282818110610549576105496116cc565b905060200201602081019061055e9190611442565b6001600160a01b03167ff93f9a76c1bf3444d22400a00cb9fe990e6abe9dbb333fda48859cfee864543d600060405161059b911515815260200190565b60405180910390a2806105ad816116e2565b9150506104da565b600061034f82610994565b60006001600160a01b0382166105ec576040516322718ad960e21b815260006004820152602401610445565b506001600160a01b031660009081526003602052604090205490565b610610610ad3565b61061a6000610b00565b565b610624610ad3565b60005b818110156104ca576001600a6000858585818110610647576106476116cc565b905060200201602081019061065c9190611442565b6001600160a01b031681526020810191909152604001600020805460ff1916911515919091179055828282818110610696576106966116cc565b90506020020160208101906106ab9190611442565b6001600160a01b03167ff93f9a76c1bf3444d22400a00cb9fe990e6abe9dbb333fda48859cfee864543d60016040516106e8911515815260200190565b60405180910390a2806106fa816116e2565b915050610627565b60606001805461036490611692565b61041b338383610b52565b61072784848461041f565b6104a93385858585610bf1565b6001600160a01b0381166000908152600a602052604081205460ff16801561077557506001600160a01b0382166000908152600b602052604090205460ff16155b801561034f5750600954600854111592915050565b606061034f82610d1c565b336000908152600a602052604090205460ff166107e65760405162461bcd60e51b815260206004820152600f60248201526e139bdd081dda1a5d195b1a5cdd1959608a1b6044820152606401610445565b336000908152600b602052604090205460ff16156108375760405162461bcd60e51b815260206004820152600e60248201526d105b1c9958591e481b5a5b9d195960921b6044820152606401610445565b60095460085411156108805760405162461bcd60e51b815260206004820152601260248201527113585e081cdd5c1c1b1e481c995858da195960721b6044820152606401610445565b600880549081906000610892836116e2565b91905055506108a13382610e2d565b6108ab8183610e47565b336000818152600b602052604090819020805460ff19166001179055517fd35bb95e09c04b219e35047ce7b7b300e3384264ef84a40456943dbc0fc17c14906108f79084908690611709565b60405180910390a25050565b6001600160a01b03918216600090815260056020908152604080832093909416825291909152205460ff1690565b610939610ad3565b6001600160a01b03811661096357604051631e4fbdf760e01b815260006004820152602401610445565b61096c81610b00565b50565b60006001600160e01b03198216632483248360e11b148061034f575061034f82610e97565b6000818152600260205260408120546001600160a01b03168061034f57604051637e27328960e01b815260048101849052602401610445565b6104ca8383836001610ee7565b6000828152600260205260408120546001600160a01b0390811690831615610a0757610a07818486610fed565b6001600160a01b03811615610a4557610a24600085600080610ee7565b6001600160a01b038116600090815260036020526040902080546000190190555b6001600160a01b03851615610a74576001600160a01b0385166000908152600360205260409020805460010190555b60008481526002602052604080822080546001600160a01b0319166001600160a01b0389811691821790925591518793918516917fddf252ad1be2c89b69c2b068fc378daa952ba7f163c4a11628f55a4df523b3ef91a4949350505050565b6007546001600160a01b0316331461061a5760405163118cdaa760e01b8152336004820152602401610445565b600780546001600160a01b038381166001600160a01b0319831681179093556040519116919082907f8be0079c531659141344cd1fd0a4f28419497f9722a3daafe3b4186f6b6457e090600090a35050565b6001600160a01b038216610b8457604051630b61174360e31b81526001600160a01b0383166004820152602401610445565b6001600160a01b03838116600081815260056020908152604080832094871680845294825291829020805460ff191686151590811790915591519182527f17307eab39ab6107e8899845ad3d59bd9653f200f220920489ca2b5937696c31910160405180910390a3505050565b6001600160a01b0383163b15610d1557604051630a85bd0160e11b81526001600160a01b0384169063150b7a0290610c33908890889087908790600401611722565b6020604051808303816000875af1925050508015610c6e575060408051601f3d908101601f19168201909252610c6b9181019061175f565b60015b610cd7573d808015610c9c576040519150601f19603f3d011682016040523d82523d6000602084013e610ca1565b606091505b508051600003610ccf57604051633250574960e11b81526001600160a01b0385166004820152602401610445565b805160208201fd5b6001600160e01b03198116630a85bd0160e11b14610d1357604051633250574960e11b81526001600160a01b0385166004820152602401610445565b505b5050505050565b6060610d2782610994565b5060008281526006602052604081208054610d4190611692565b80601f0160208091040260200160405190810160405280929190818152602001828054610d6d90611692565b8015610dba5780601f10610d8f57610100808354040283529160200191610dba565b820191906000526020600020905b815481529060010190602001808311610d9d57829003601f168201915b505050505090506000610dd860408051602081019091526000815290565b90508051600003610dea575092915050565b815115610e1c578082604051602001610e0492919061177c565b60405160208183030381529060405292505050919050565b610e2584611051565b949350505050565b61041b8282604051806020016040528060008152506110c6565b6000828152600660205260409020610e5f82826117f1565b506040518281527ff8e1a15aba9398e019f0b49df1a4fde98ee17ae345cb5f6b5e2c27f5033e8ce79060200160405180910390a15050565b60006001600160e01b031982166380ac58cd60e01b1480610ec857506001600160e01b03198216635b5e139f60e01b145b8061034f57506301ffc9a760e01b6001600160e01b031983161461034f565b8080610efb57506001600160a01b03821615155b15610fbd576000610f0b84610994565b90506001600160a01b03831615801590610f375750826001600160a01b0316816001600160a01b031614155b8015610f4a5750610f488184610903565b155b15610f735760405163a9fbf51f60e01b81526001600160a01b0384166004820152602401610445565b8115610fbb5783856001600160a01b0316826001600160a01b03167f8c5be1e5ebec7d5bd14f71427d1e84f3dd0314c0f7b2291e5b200ac8c7c3b92560405160405180910390a45b505b5050600090815260046020526040902080546001600160a01b0319166001600160a01b0392909216919091179055565b610ff88383836110de565b6104ca576001600160a01b03831661102657604051637e27328960e01b815260048101829052602401610445565b60405163177e802f60e01b81526001600160a01b038316600482015260248101829052604401610445565b606061105c82610994565b50600061107460408051602081019091526000815290565b9050600081511161109457604051806020016040528060008152506110bf565b8061109e84611141565b6040516020016110af92919061177c565b6040516020818303038152906040525b9392505050565b6110d083836111d4565b6104ca336000858585610bf1565b60006001600160a01b03831615801590610e255750826001600160a01b0316846001600160a01b0316148061111857506111188484610903565b80610e255750506000908152600460205260409020546001600160a01b03908116911614919050565b6060600061114e83611239565b600101905060008167ffffffffffffffff81111561116e5761116e61150e565b6040519080825280601f01601f191660200182016040528015611198576020820181803683370190505b5090508181016020015b600019016f181899199a1a9b1b9c1cb0b131b232b360811b600a86061a8153600a85049450846111a257509392505050565b6001600160a01b0382166111fe57604051633250574960e11b815260006004820152602401610445565b600061120c838360006109da565b90506001600160a01b038116156104ca576040516339e3563760e11b815260006004820152602401610445565b60008072184f03e93ff9f4daa797ed6e38ed64bf6a1f0160401b83106112785772184f03e93ff9f4daa797ed6e38ed64bf6a1f0160401b830492506040015b6d04ee2d6d415b85acef810000000083106112a4576d04ee2d6d415b85acef8100000000830492506020015b662386f26fc1000083106112c257662386f26fc10000830492506010015b6305f5e10083106112da576305f5e100830492506008015b61271083106112ee57612710830492506004015b60648310611300576064830492506002015b600a831061034f5760010192915050565b6001600160e01b03198116811461096c57600080fd5b60006020828403121561133957600080fd5b81356110bf81611311565b60005b8381101561135f578181015183820152602001611347565b50506000910152565b60008151808452611380816020860160208601611344565b601f01601f19169290920160200192915050565b6020815260006110bf6020830184611368565b6000602082840312156113b957600080fd5b5035919050565b80356001600160a01b03811681146113d757600080fd5b919050565b600080604083850312156113ef57600080fd5b6113f8836113c0565b946020939093013593505050565b60008060006060848603121561141b57600080fd5b611424846113c0565b9250611432602085016113c0565b9150604084013590509250925092565b60006020828403121561145457600080fd5b6110bf826113c0565b6000806020838503121561147057600080fd5b823567ffffffffffffffff8082111561148857600080fd5b818501915085601f83011261149c57600080fd5b8135818111156114ab57600080fd5b8660208260051b85010111156114c057600080fd5b60209290920196919550909350505050565b600080604083850312156114e557600080fd5b6114ee836113c0565b91506020830135801515811461150357600080fd5b809150509250929050565b634e487b7160e01b600052604160045260246000fd5b600067ffffffffffffffff8084111561153f5761153f61150e565b604051601f8501601f19908116603f011681019082821181831017156115675761156761150e565b8160405280935085815286868601111561158057600080fd5b858560208301376000602087830101525050509392505050565b600080600080608085870312156115b057600080fd5b6115b9856113c0565b93506115c7602086016113c0565b925060408501359150606085013567ffffffffffffffff8111156115ea57600080fd5b8501601f810187136115fb57600080fd5b61160a87823560208401611524565b91505092959194509250565b60006020828403121561162857600080fd5b813567ffffffffffffffff81111561163f57600080fd5b8201601f8101841361165057600080fd5b610e2584823560208401611524565b6000806040838503121561167257600080fd5b61167b836113c0565b9150611689602084016113c0565b90509250929050565b600181811c908216806116a657607f821691505b6020821081036116c657634e487b7160e01b600052602260045260246000fd5b50919050565b634e487b7160e01b600052603260045260246000fd5b60006001820161170257634e487b7160e01b600052601160045260246000fd5b5060010190565b828152604060208201526000610e256040830184611368565b6001600160a01b038581168252841660208201526040810183905260806060820181905260009061175590830184611368565b9695505050505050565b60006020828403121561177157600080fd5b81516110bf81611311565b6000835161178e818460208801611344565b8351908301906117a2818360208801611344565b01949350505050565b601f8211156104ca57600081815260208120601f850160051c810160208610156117d25750805b601f850160051c820191505b81811015610d13578281556001016117de565b815167ffffffffffffffff81111561180b5761180b61150e565b61181f816118198454611692565b846117ab565b602080601f831160018114611854576000841561183c5750858301515b600019600386901b1c1916600185901b178555610d13565b600085815260208120601f198616915b8281101561188357888601518255948401946001909101908401611864565b50858210156118a15787850151600019600388901b60f8161c191681555b5050505050600190811b0190555056fea2646970667358221220ad1cfed2bff2851cd07491bca4181777eedcaae169ac2e0d14bcaa83f22d4b1864736f6c63430008140033",
  "linkReferences": {},
  "deployedLinkReferences": {}
}